:10000000E8070020AD15000029400000DD150000C4
:10001000DD150000DD150000DD150000000000000A
:10002000000000000000000000000000FD130000C0
:10003000DD15000000000000B513000011400000B5
:100040006D1500006D1500006D1500006D150000A8
:100050006D1500006D1500006D1500006D15000098
:100060006D1500006D1500006D1500006D15000088
:100070006D1500006D1500006D1500006D15000078
:100080006D1500006D1500006D1500006D15000068
:100090006D1500006D1500006D1500006D15000058
:1000A0006D1500006D1500006D1500006D15000048
:1000B0006D1500006D1500006D1500006D15000038
:1000C0006D1500006D1500006D1500006D15000028
:1000D0006D1500006D1500006D1500006D15000018
:1000E0006D1500006D1500006D1500006D15000008
:1000F0006D1500006D1500006D1500006D150000F8
:1001000053B94AB9002908BF00281CBF4FF0FF317E
:100110004FF0FF3000F078B9ADF1080C6DE904CE76
:1001200000F006F8DDF804E0DDE9022304B07047D2
:100130002DE9F047089D0E4604468E46002B4CD113
:100140008A42944667D9B2FA82F252B101FA02F3B6
:10015000C2F1200120FA01F10CFA02FC41EA030E7F
:1001600094404FEA1C48210CBEFBF8F61FFA8CF7AE
:1001700008FB16E341EA034306FB07F199420AD95B
:100180001CEB030306F1FF3080F01E81994240F220
:100190001B81023E63445B1AA4B2B3FBF8F008FB78
:1001A000103344EA034400FB07F7A7420AD91CEBCB
:1001B000040400F1FF3380F00981A74240F2068178
:1001C00064440238E41B40EA064000211DB1D440DB
:1001D0000023C5E90043BDE8F0878B4208D9002D14
:1001E00000F0EF800021C5E900060846BDE8F08771
:1001F000B3FA83F1002949D1B34202D3824200F21B
:10020000FF80841A66EB030301209E46002DE2D096
:10021000C5E9004EDFE702B9FFDEB2FA82F2002A3A
:1002200040F08E80A1EB0C064FEA1C471FFA8CF3BE
:100230000121B6FBF7FE07FB1E60260C46EA0046CE
:1002400003FB0EF0B04208D91CEB06060EF1FF3896
:1002500002D2B04200F2D080C646361AA4B2B6FB33
:10026000F7F007FB106644EA064400FB03F3A342E1
:1002700008D91CEB040400F1FF3602D2A34200F2BD
:10028000B8803046E41A40EA0E409FE7C1F12007EB
:1002900022FA07F48B40234306FA01FC26FA07F4FE
:1002A00020FA07F646EA0C064FEA134900FA01F86D
:1002B000B4FBF9FE300C1FFA83FC09FB1E4440EA34
:1002C00004440EFB0CF0A04202FA01F20AD91C19F8
:1002D0000EF1FF3A80F08B80A04240F28880AEF1B0
:1002E000020E1C44241AB6B2B4FBF9F009FB104408
:1002F00046EA044400FB0CFCA44507D91C1900F194
:10030000FF3670D2A4456ED902381C4440EA0E4034
:10031000A0FB02E6A4EB0C04B442F446B14659D368
:1003200056D0002D6ED0B8EB0C0364EB0904CB4023
:1003300004FA07F71F43CC40C5E9007400214AE7DF
:10034000C2F1200024FA00F10CFA02FC06FA02F3D2
:1003500026FA00F04FEA1C4741EA0306B0FBF7F12A
:100360001FFA8CF307FB110E300C40EA0E4001FB24
:1003700003FE864504FA02F408D91CEB000001F1E3
:10038000FF3832D2864530D902396044A0EB0E00E6
:10039000B6B2B0FBF7FE07FB1E0046EA00460EFBB6
:1003A00003F0B04209D91CEB06060EF1FF3818D253
:1003B000B04216D9AEF1020E6644361A4EEA014139
:1003C00037E72946284606E70646E4E61846F9E6F2
:1003D000F045A6D2BEEB020C66EB0303013899464A
:1003E0009FE7C646E9E7304690E74146CEE7D64666
:1003F00078E76444023845E7AEF1020E66442CE724
:10040000084603E72946E6E6704700BF014902486F
:1004100003F048BCF4490000024A00000B680133B5
:100420000B60014B1B68184700000020014B18604F
:10043000704700BF0000002007B50B4600210246B0
:100440000191034801A900F0E5F803B05DF804FB51
:100450001D0400002DE9F84FB0F8189019F00808B5
:10046000044693460DD001290CBF49F0100949F00C
:100470002009A0F818908BF31188BFF36F8FBDE8A7
:10048000F88F09F00709022907D1204603F017FC6D
:100490000028F0D00128238B4ED16769218B002FD3
:1004A00015DA256821F00701C4E9008841F001014F
:1004B00021830026218B01F0070ACA4502D0A368D8
:1004C000002B5AD10DB9002E71D0002356E001F057
:1004D00007035A1F012A1ED821F00701062B2568A1
:1004E00089B2C4E900880AD13DB1638B2A461268FB
:1004F00001339BB2002AFAD1638341F002012183C8
:10050000204603F0DCFB06460028D3D0238B43F0C3
:1005100020032383CDE7042B0CD121F0070189B2FE
:100520002183204603F0CBFB05460028C1D041F0D3
:10053000200121830025BCE7032809D1226923F08B
:100540000703166843F00603238300252F46B1E70F
:10055000042806D1226923F00703566843F00403F8
:10056000F2E7052806D1226923F00703966843F0D5
:100570000503E9E700252E46E8E7012341F00801DD
:1005800021838BF31188BFF36F8FFBB985BB16B145
:100590001F492046B0474FF02003EFF3118B83F340
:1005A0001188BFF36F8F238B23F008032383238BE2
:1005B000DA0625D523F0100323830121B4F818901F
:1005C00009F0070900297FF45EAF54E7A16800290C
:1005D000DCD0D1F80090D1F804B03B46524620461A
:1005E000D847B9F1000FD1D04946D9F80090F2E7C9
:1005F00029463B46524620462D6803F07CFBC5E762
:1006000013F020011EBF23F0200323830221D5E72E
:10061000233D00002DE9F04F91B08B4602909246A9
:100620001C4600259AF8000008B928465DE32528F5
:100630000AF1010707D0029B594698470028C0F2EB
:100640005483013512E2182200210AA803F03AFD72
:100650009AF80130252B78D0002210469646944611
:100660001646394617F8013B2B2B00F09D8000F20F
:100670009480202B00F09B80232B00F09B802EB1D8
:100680009DF8306046F004068DF83060BCF1000F34
:1006900005D09DF8306046F008068DF83060BEF158
:1006A000000F05D09DF8306046F010068DF83060E0
:1006B00028B19DF8300040F020008DF830002AB1BC
:1006C0009DF8302042F040028DF830209DF8302017
:1006D00002F04400442803D16FF386128DF83020D5
:1006E0009DF830202A2B42F080028DF830207BD1FB
:1006F0009DF8312042F001024B1C8DF831201A7810
:100700002E2A9DF831200CBF0121002161F3410206
:100710008DF8312074D15A782A2A6AD00133002109
:100720000A26184610F8012BA2F13007092F40F2D3
:100730008E809DF830200E91C2F3400040EAD171C6
:1007400061F341028DF830205AE00AF102078DF87A
:1007500033309DF83130D90740F1498154F8049B7A
:10076000B9F1000F07DA9DF8302042F004028DF84D
:100770003020C9F100095A0740F1428154F8048B36
:10078000B8F1000F80F241819DF831306FF34103E1
:100790008DF831304FF0FF3837E12D2B0CD0302B56
:1007A0007FF46DAF01225CE74FF0010C59E74FF089
:1007B000010E56E7012054E7012652E70CFB020226
:1007C000303A33461E4616F8010BA0F13007092FC8
:1007D000F4D9994293D09DF830100D92D20F62F364
:1007E00041018DF830108AE70B4600224FF00A0CC9
:1007F000E8E79DF8312042F004028DF83120023301
:100800001F4617F8012B6C2A41D025D8682A2BD017
:100810006A2A46D04C2A4CD01F4617F8012B9DF867
:1008200031308DF83320782A00F2D980572A4DD8FC
:10083000412A03D0453A022A00F2D1809DF8323095
:10084000042262F302038DF8323001239EE006FB9E
:1008500001213039034664E7742A26D07A2ADBD195
:100860009DF8313006220DE05A78682A9DF8312033
:1008700006D1012161F3C6028DF831209F1CCCE71F
:100880001346022262F3C6038DF83130C5E75A7869
:100890006C2A9DF8312001D10421EBE71346032295
:1008A000F0E79DF831300522ECE79DF83130072262
:1008B000E8E7BDF8303023F4F04323F0020343F4BB
:1008C000804343F00203ADF83030A6E7A2F15801AF
:1008D000202900F2848001A050F821F0A109000035
:1008E000DF090000DF090000DF090000DF09000068
:1008F000DF090000DF090000DF090000DF09000058
:100900003D080000DF090000A109000061090000A6
:100910003D0800003D0800003D080000DF09000020
:1009200061090000DF090000DF090000DF090000A5
:10093000DF090000A9090000A1090000C5090000A5
:10094000DF090000DF090000C5090000DF09000021
:10095000A1090000DF090000DF090000A109000073
:100960009DF83210012003F0780360F30201402B60
:100970008DF8321002BF9DF8301041F001018DF862
:100980003010632A31D1003B18BF01239DF830207D
:10099000C2F340010B4363F341028DF83020D8E6E7
:1009A0009DF832100220DEE79DF8322003F0780334
:1009B000A3F14000032161F3020243428DF832208B
:1009C0004341E3E79DF83220032113F0780F61F3F0
:1009D00002028DF8322014BF01230023D6E79DF8D0
:1009E000303043F001038DF830300023CEE79DF91D
:1009F0003020002AB4BFDDF834904FF0FF39BAE65A
:100A00009B077FF5C7AEDDF838809DF831100023D5
:100A1000CDE90D339DF8323003F00703012BC1F30C
:100A2000C30138D1CB1E042B22D8DFE803F0030921
:100A30000921210054F8043BDA17CDE90A3206E017
:100A4000073424F00704F4E80223CDE90A239DF8D3
:100A5000303013F0030654D002983B4652465946B4
:100A600003F028FA0028C0F240810544BA46D9E5CF
:100A700054F8043B01294FEAE372CDE90A3205D16B
:100A80009DF828300A9300230B93E0E70229DED17A
:100A9000BDF92830D0E7022B23D1CB1E042B13D86D
:100AA000DFE803F0030A0A12120022680A92002308
:100AB000201D0B930446CAE7E01D20F00700F0E874
:100AC0000223CDE90A23F5E754F8043B0A930129F0
:100AD0004FF000030B93D3D00229B8D1BDF82830D2
:100AE000D0E7042B07D1073424F00704F4E80223ED
:100AF000CDE90A23ABE7032B04BF54F8043B0A9368
:100B0000A5E79DF833007828B0D8622822D8252898
:100B10003FF491AD5828A9D10DF126030093DDE9EA
:100B20000A0104AB0CAA03F07FF98246B8F1000F6A
:100B30000DF126000CDB9DF83020A0EB0A036FF3CB
:100B4000861298458DF8302002D9A8EB03030D9347
:100B500080463DE06338152888D801A252F820F07D
:100B6000E10B0000450C00006D0A00006D0A00005A
:100B70006D0A00006D0A0000450C00006D0A0000BF
:100B80006D0A00006D0A00006D0A00009F0C000055
:100B90006D0C0000710C00006D0A00006D0A000071
:100BA000B90B00006D0A00006D0C00006D0A00001A
:100BB0006D0A00006D0C0000B8F1000FDDF828A0F0
:100BC0000ADB4146504603F03DFA0AEB00080026D6
:100BD000BAF1000F0CD149E7504603F02CFAF4E7C4
:100BE0000A9B8DF8103000260DF1100A0DF1110846
:100BF000A8EB0A0306B101339DF83220D00668D570
:100C0000023352060D9948BF0E9A0B4448BF9B18F9
:100C1000B9F1000F76DD9DF83020A9EB0309C2F38E
:100C20008003039353076DD4500661D546B1029BF0
:100C3000594630469847002857DB039B01351E462E
:100C4000302356E01E070FD413F0100618BF2026DD
:100C5000DDE90A23002BBFF65FAF524263EB43038B
:100C6000CDE90A232D2657E72B26F1E7002653E787
:100C70000A9840B30DF1260300930CAA04AB00219F
:100C800003F0D2F8BDF8323003F0EF0343F4F04341
:100C900043F010038246ADF83230002646E70A9B47
:100CA00007293FF6E3AEDFE801F00C04060C080864
:100CB0000C0C1D70DAE61D80D8E6EA17C3E9005275
:100CC000D4E61D60D2E6DFF8C8A006460AF10508A2
:100CD0008EE7110748BF013393E71846039359463F
:100CE000029B98470028039B04DA11B0BDE8F08FFF
:100CF00020234D444A46002AA5EB090109F1FF399A
:100D0000EBDC0D4636B1029B594630469847002829
:100D1000EBDB01359DF83230D90601D41A0706D530
:100D2000029B5946302098470028DEDB01359DF8AC
:100D30003230DB0607D59DF83300029B59469847B1
:100D40000028D2DB01350D9E2E44731B002B16DCD0
:100D5000029843465246594603F0ACF80028C4DBDB
:100D60000544A944A9EB0503002B7FF77FAE029B46
:100D70005946202098470028B7DB0135F2E7029B4F
:100D80005946302098470028AFDB0135DDE700BF2A
:100D9000134A0000F8B505464FF02003EFF3118623
:100DA00083F31188BFF36F8F094B1C685CB1094F47
:100DB000D4E90132002D08BF13460BB138789847AB
:100DC0002468002CF4D186F31188BFF36F8FF8BD2F
:100DD0001802002020020020084B10B51C685CB9E6
:100DE00001221A60064B93E8070003F0A6F920469B
:100DF000BDE81040FFF7CEBF10BD00BF04000020CB
:100E000020020020F0B585B06E460146054630460A
:100E100003F067F896E80700144C84E80700207890
:100E2000274600B3124B002119606B1C0DD01148EE
:100E300016464FF4004C104A0023E6FB0C01FFF766
:100E40005FF90121281A03F015FC02F003FB0120D1
:100E5000FFF7A0FF97E8070003F05CF9FFF7BCFF7E
:100E600002F0B0FB207805B0F0BD00BF20020020EA
:100E7000040000203F420F0040420F0010B5074819
:100E8000074C02F0CFF8074B1860204600F046FDF3
:100E90002046FFF7CBFA002010BD00BF194A000022
:100EA000A90E00002C0200200A2838B5074D044680
:100EB00004D1286883680D215B6898472868836897
:100EC000E1B25B689847204638BD00BF2C02002085
:100ED000084B70B5C31A0D4607499B100446594389
:100EE0000648402203F01EF82B4601462046BDE886
:100EF0007040184744020020B76DDBB66400002044
:100F000073B50C4C0C4A4023041B00930D460B4652
:100F10000A49A41061430646094803F02FF8011E50
:100F200005DA30462B4602B0BDE87040184702B0E3
:100F300070BD00BF44020020ED3F0000B76DDBB67E
:100F400064000020002270B501210446104600F024
:100F500083FA002000F062FA0F4801F00DFC0F4BFD
:100F6000984215D103F00CFA26690D49304602F07B
:100F7000F5FE00280BDB246909490125356404F1DD
:100F80001C0002F0EBFE002801DBE564002070BDD0
:100F90006FF00400FBE700BFD90F00000000AD0BAD
:100FA0000C49000001460C2309484B4370B5C41896
:100FB000D4E90E5600224033A263184402F09FFF8A
:100FC0002DB132462B460348BDE87040184770BD2E
:100FD000440200206400002010B1012804D07047B2
:100FE000034B1B6C5B0701D1FFF7DCBF704700BFF1
:100FF0004402002008B54FF02003EFF3118183F382
:101000001188BFF36F8F124A136843F0020013F088
:10101000010310600CD04FF08042D2F80C34D2F8AB
:101020000C2413F0010303D00A4802F068FF0123E7
:1010300081F31188BFF36F8F23B1BDE80840002012
:10104000FFF7B0BFBDE80840012003F0A3B900BF1F
:1010500094020020840200201FB500220123CDE964
:101060000223094ACDF800D06B46CDF804D002F037
:10107000B6FF002805DB4FF480420023684602F0EB
:1010800069F905B05DF804FB0B400000094BBFF3A4
:101090005B8F53E8002F22F0020143E80010002884
:1010A000F7D1BFF35B8FD30702D4012001F074BBEB
:1010B000704700BF940200202DE9F0413949BFF389
:1010C0005B8F0746012251E8003F41E800200028DD
:1010D000F9D1BFF35B8F33B9334934484B60CB60F0
:1010E0008A6002F04EFE7B1E012B2FD8012F07D104
:1010F0004FF08043D3F81C3403F00303012B25D0B9
:1011000003F0E3F9044618B9294B1B78002B41D1B1
:101110004FF02003EFF3118683F31188BFF36F8F35
:101120000124DFF890804FF08045D5F81834D5F8C9
:101130001824D2030CD503F00303012B01D0012F97
:1011400006D10CB386F31188BFF36F8FBDE8F08131
:10115000ACB1304600F0DAF9D5F81835002BE4D1FF
:10116000D5F80421002AE0D0C5F80431D5F80431BF
:101170000123C5F81835C8F88031AB60D5E70021E8
:10118000212002F09DFBE7E74FF080430222C3F8E5
:101190000423DBE74FF080430222C3F8082306460E
:1011A000BFE700BF98020020340200206002002048
:1011B000E203002000E100E0044A1368C81A20F0AE
:1011C0007F400344136002F0CDBC00BFAC0200209E
:1011D0002DE9F843860006F1804600F1500406F53B
:1011E0008836A400A4B204F180444FF48037D6F8C6
:1011F0004035DFF86C8021F07F4504F58834874066
:10120000D8F80495A3EB090323F07F4329F07F422C
:10121000012BC6F8402502D1132003F049FA09F149
:101220000202AB1A23F07F43B3F5000F88BF1546C7
:10123000002323602368C8F8447325F07F43C6F871
:101240004035D8F80435994506D0EB1A023B23F017
:101250007F43B3F5000F01D8BDE8F8832B46CFE7F5
:1012600000100140F8B50025104C2F46104B1E68A9
:1012700005B1F8BDD4F80423D203FAD5D4F840213F
:10128000002AF6D0C4F84051D4F840214FF48032FF
:10129000C4F84823D4F84015012526B15A681F60C8
:1012A0000020B047E2E71E60E3E700BF0010014006
:1012B000A002002038B50F4C00254FF48033C4F84D
:1012C0000855C4F804330C4B4FF40032C3F88021A6
:1012D00001212A46112000F0BFF8112000F09EF8ED
:1012E0000123064AA360022023601360FFF7E4FE97
:1012F000284638BD0010014000E100E0A8020020AF
:10130000134AB0F1FF3F14BF03461346013B002BC5
:101310001CDD9342A8BF13460E4AD2F804050E4ABC
:101320001168401A10F4000F20F07F4218BF00230C
:1013300001321344094A0A48106000205060044AF0
:10134000934294BFC9188918FFF742BF0023E3E70F
:10135000FFFF7F0000100140AC020020A00200202F
:10136000B9110000044BD3F80405044B1B68C01AE4
:1013700020F07F40704700BF00100140AC02002009
:10138000094A0A49936809689967094958674B6887
:1013900043F080534B60002383F31188BFF36F8FBA
:1013A0009368986F704700BFA0030020F0490000C9
:1013B00000ED00E00F498A684FF030001044EFF371
:1013C000098C80E8F01F202080F31188BFF36F8F15
:1013D000094F4FF000664A6A8A603E60506F0023F2
:1013E000536780F3118802F1300090E8F01F8CF30E
:1013F00009887047A003002004ED00E01EF0040FF0
:101400000CBFEFF30880EFF30980816911F8021C2B
:101410000229FFD001B502F003FE01BD43B2002B4B
:1014200008DB012200F01F0002FA00F05B09024A0B
:1014300042F82300704700BF00E100E0054B42097D
:1014400000F01F0053F82220012303FA00F010409F
:10145000704700BF00E100E043B2002BA8BF03F1DA
:10146000604301F10101B8BF064B4FEA4111ACBF27
:1014700003F5614300F00F00C9B2B4BF195483F8FB
:101480000013704714ED00E042F8203C009B42F846
:101490001C3C0A49019B42F8183C029B42F8143C50
:1014A00021F001014FF0807342F8043C42F8081C1F
:1014B0000023203A02654367704700BF153E0000D5
:1014C000074B9860104681F30988002163B681F3C9
:1014D0001188BFF36F8F0022002302F09BFC00BF36
:1014E000A0030020014910220A60704710ED00E0BF
:1014F00072B6404080F31188BFF36F8FBFF34F8FF8
:1015000030BF62B6BFF36F8F704700BF72B64940FD
:1015100081F3118820BF80F3118862B6704700BF45
:1015200030BFFFF7FDBF00BF0E4A08B50E4B22F0DB
:101530007F029A60BFF34F8FBFF36F8FD3F888207D
:1015400022F47002C3F88820EFF3148323F004031D
:1015500083F3148801F090FD02F024FA00F022F9E0
:1015600001F0AEFD0000000000ED00E001B572B634
:101570000B4A106A00281EBF0021116202F0ABFF67
:1015800062B6EFF30580A0F110004FEAC0000549F4
:10159000014409C99847BDE80140034908470000D4
:1015A000A0030020144700008917000002F0B0FDDE
:1015B000202080F3118808484FF40061401880F320
:1015C0000988EFF314800221084380F31488BFF3E5
:1015D0006F8FFFF7A9FF000028090020EFF30880B4
:1015E000EFF3098101B5724600F040F801BD00BF7C
:1015F0000D4B9A6A9A6A9A6A920508D59A6B9A6A0A
:10160000120404D518B19A6A22F400429A62064B79
:101610009A6A9A6AD20558BF9A6A9A6A002042F476
:101620007F429A620870704700ED00E00E4B9A6AA4
:101630009A6A9A6A920708D55A6B9A6A120604D572
:1016400018B19A6A22F080029A62074B9A6A9A6AE3
:101650009A6AD20658BF9A6A9A6A002042F0FF023C
:101660009A620870704700BF00ED00E070B5414B12
:101670005B688AB00E46C3F30803002585F3118822
:10168000BFF36F8F02F07F41B1F17F4F11D102F0B4
:101690000C0108290DD0110701D4064601250022AE
:1016A000033B8DF80720032B5CD8DFE803F00446EA
:1016B0004A4E2E46F3E72F4BDC6A14F0020451D158
:1016C000DA6A520021D593F8282032B10DF10701D2
:1016D0000120FFF7ABFF044617E093F829202AB159
:1016E0000DF107010120FFF783FFF4E75A8D92B255
:1016F0005AB19A6A9A6A9A6A9A6A9A6A9A6A9A6AC3
:101700006FEA02426FEA12429A629DF8073093B97B
:101710002022314602A802F0AAFC099B25B3C3F39C
:10172000080222B96FEA53236FEA4323099302A9FF
:10173000204602F073FC0AB070BD0DF107010020D5
:10174000C7E70DF107010020CDE70A4B9A6A9A6AB4
:101750009A6A9A6A9A6A9A6A9A6A6FEA02426FEA7F
:1017600012429A620024D0E723F4FF7323F00103AE
:10177000DCE700BF00ED00E0024A536943F01003CC
:101780005361704700ED00E0044B9968586A884245
:1017900003D003494FF080520A607047A003002035
:1017A00004ED00E0044800232021C2180133302B4F
:1017B00082F80013F9D1704700E100E0064B9B6806
:1017C000834207D1EFF3058323B1044A536843F002
:1017D0008053536002F094B8A003002000ED00E0B5
:1017E000024B034A0348012100F05EB800000420C8
:1017F0000000002018490000F0B51F4F00268E425F
:1018000001DB1046F0BD44689CB353B104F1FF3CCA
:1018100014EA0C0F18D11F2C16D905681CEA050F05
:1018200012D1202C0568D0F808C0D2B20FD9B4F17B
:10183000004F0ED8013CB4FA84F4C4F11F046400D4
:10184000072A4CEA040406D96FF01502D9E70824E8
:10185000F6E73E24F4E725F01F05154345F0100593
:1018600044F00104C7F89820C7F89C500132C7F82B
:10187000A04001360C30C2E700ED00E0044B052229
:10188000C3F89420BFF34F8FBFF36F8F704700BF33
:1018900000ED00E0BFF35F8F024B0022C3F89420FD
:1018A000704700BF00ED00E010B5034C0123227823
:1018B000FFF7A2FF207010BDE00300201449086864
:1018C000082810B521D8FFF7E5FF124C496800221F
:1018D000904201F10C0105D10F4B1870FFF7CEFFBC
:1018E000002010BDC4F8982051F80C3C23F01F03D1
:1018F000134343F01003C4F89C3051F8043C43F008
:101900000103C4F8A0300132E2E74FF0FF30E8E70E
:101910002449000000ED00E0E0030020014B1860C6
:10192000704700BF080000204FF02003EFF3118242
:1019300083F31188BFF36F8F06490123C1F8403547
:101940004FF08041C1F8783582F31188BFF36F8F73
:101950000020704700E0014020B1034B800143F0BC
:1019600001031847704700BFE0480000074B0322FF
:10197000C3F800270122C3F808254FF0A0430E2228
:10198000C3F820270020C3F8182770470003005031
:1019900008B5094B1A786AB901211970062005218A
:1019A000FFF75AFD0620FFF739FD044B4FF00042C8
:1019B000C3F80423002008BDE103002000600040BC
:1019C0002B4BF0B544682B481340834241D00DD8CF
:1019D000062B15D005D89BB1022B3CD06FF015001B
:1019E00036E0B3F5801FF9D1012309E02248834294
:1019F00033D0B3F5A00F32D0B3F5800FEED1022370
:101A0000D00654BFC2F34016032682F480759705B2
:101A1000C2F34020C5F3002507D512F4006F6768B4
:101A20001FD001228A40C7F80825227A134C012AC8
:101A300001F01F0140EA450218BF4FF0A04442EAFE
:101A4000032301F5E07143EA860344F821300020C6
:101A5000F0BD0723D4E70423D2E70523D0E703230F
:101A6000CEE7520542BF01228A40C7F80C25DCE7C9
:101A70000600F000060010000200400000030050C5
:101A800000F01F024009084B012818BF4FF0A04387
:101A900003EB8203D3F8002722F4403242EA0142EA
:101AA000C3F80027704700BF000300502DE9F84F2E
:101AB0000369D0F804A0DE68DFF87CB08846D3E97B
:101AC00005210A4326EA0206DAF804201B69D2F847
:101AD00010555D4026EA0505374601244FF0000900
:101AE00017B92846BDE8F88F3C4221D09AF8083053
:101AF00009F01F00344240EA431014D14209012A80
:101B000000F01F0314BF4FF0A0425A4603F5E073E4
:101B100052F82330C3F30143022B02BFD8F8003040
:101B20002343C8F800300021FFF7AAFF27EA040783
:101B300009F101096400D3E700030050F0B5002467
:101B400085B0CDE90044CDE90244284ED6F87C5159
:101B50006DB102A92648FFF7A9FF03A90090254807
:101B6000FFF7A4FF0190C6F87C41D6F87C312249EA
:101B70001E4C002201269446D4F8043306FA02F0E3
:101B8000184216D00B68A3B102F5A27304AF54F843
:101B90002330C1F800C0C3F3403007EB8000C3F32B
:101BA000042350F8107C06FA03F33B4340F8103C42
:101BB0000B680132082A01F10401DDD1009A22B13B
:101BC0000E4B0B49586802F014FB019A22B10C4BE2
:101BD0000849586802F00DFB2DB1054802F01AFBC8
:101BE000044802F017FB05B0F0BD00BF00600040E4
:101BF000C4000020DC00002000610040B80200208A
:101C0000D4020020F7B5144642680769127A01F041
:101C10001F05B4F5A03F0E4645EA421510D16909EB
:101C2000012905F01F02614902F5E07218BF4FF06B
:101C3000A04151F82220D00707D56FF085009AE027
:101C4000B4F5005FF96800F09880FA680121B140AE
:101C500011437A69F9600121B140B4F5A03F0CBF8E
:101C60000A438A437A61BA69B3F5C02F0CBF0A43AD
:101C70008A43BA613A69B3F5802F0CBF114322EA57
:101C800001014B4A3961D2F804330020DBB200F580
:101C9000A27152F82110C1F305218D4272D123FAAD
:101CA00000F1C9076ED5830003F1804303F5C043FB
:101CB000D3F8101521F00101C3F81015012383405A
:101CC000C2F80833C0B200F0D7FD28460021FFF764
:101CD000D7FEF868F04010F001004CD07869F04071
:101CE00010F0010455D0BB69F340DB075FBF3969D1
:101CF00021FA06F606F00106C6F102060DF107000C
:101D000054BFF6B2032600F0D7FD2A4B98423DD1CE
:101D10009DF80720930003F1804303F5C0432D0293
:101D2000D3F8101521F44F3121F44071C3F8101588
:101D3000D3F8101505F47C550D4345EA0646C3F863
:101D40001065930003F1804303F5C243002018603F
:101D50009DF807101B688B0003F1804303F5C04317
:101D6000D3F8102542F00102C3F81025104A0123D0
:101D70008B40C2F8043303B0F0BD0122B24021EA27
:101D8000020166E70130082881D19EE76FF012005A
:101D9000F1E73969F14001F00101C1F10301284681
:101DA000C9B2FFF76DFE2046E5E700BF0003005013
:101DB000006000400000AD0B10B504460022012178
:101DC0000320FFF749FB60682369064A00F1080118
:101DD00000F0DEFD044B984214BF6FF00F000020AE
:101DE00010BD00BFED1D00000000AD0B0378012BFE
:101DF00008D0022B08D04BB9054B0B6201F1100043
:101E000001F088BA034BF8E7034BF6E7034BF4E71E
:101E10000000AD0B0100AE0B0200AE0B0100AD0BDC
:101E20002DE9F04F056989B01F4606460C469046DD
:101E30000021142203A8D5F82C90B5F828A002F0B0
:101E400041F98DF80D704FF0FF324FF0FF33284607
:101E500001F080FA306910300022002301F07AFA94
:101E60007068DFF828B100F0E9FD00273D464745DE
:101E700001D300242FE0217A0B077ED4BAF1000FA2
:101E80000DD07B1C43450AD2880708D4237D81EA04
:101E9000030202F0010203F00403134325D0002DD6
:101EA0003AD123680693636804930025237A706807
:101EB00003F0010213F0020F8DF80C2003A90CBFF0
:101EC0002022002200F0E6FD584527D0304B9842F2
:101ED00059D06FF00404706800F0C0FD306901F063
:101EE00019FA204609B0BDE8F08F01236268501945
:101EF000504545D8C90706D42168019309EB050070
:101F000002F0B5F8019B6268154403BB002DC8D0F0
:101F1000CDF818900495C9E70023E7E73069103041
:101F20004FF48042002301F015FA40B1706800F0D0
:101F300095FD7368D3E9020100F0F0FFC9E733694A
:101F40001B6A5B45C5D1237ADB0703D40025013723
:101F50000C348CE7069B9945F8D1234607E0AD1A6F
:101F6000D868019309EB050102F081F8019B5A68DA
:101F70009542A3F10C03F2D2E8E76FF08504AAE7DB
:101F80006FF01B04A7E76FF00F04A4E70000AD0B90
:101F90000B00AD0B074BD3F8082142B10020C3F86A
:101FA0000801D3F80821D3F818350B7070474FF0AB
:101FB000FF30704700200040024BD3F88004C3F884
:101FC000800470470020004030B54B79012B22D0AF
:101FD000032B1DD110258B79032B19D1CB79BBB9DC
:101FE0000A7912B1022A13D10E220B68B3F5164FEB
:101FF00061D02DD8B3F5165F5FD016D8B3F5966FC4
:102000005DD00AD8B3F5967F5CD0B3F5167F5CD06F
:102010006FF085004EE00025DDE7B3F5166F57D071
:10202000B3F5965FF4D1344B39E0B3F5E14F52D0BC
:1020300007D8B3F5615F50D0B3F5964FE8D12F4B79
:102040002DE047F61224A342E2D14FF4000326E02C
:10205000B3F5613F44D011D8B3F5963F42D008D8CC
:102060004DF6C024A3423FD0B3F5614FD0D1244BED
:1020700015E0B3F5E13FCBD1224B10E0B3F5612F72
:1020800035D007D8204CA34233D0B3F5E12FBFD1D0
:102090001E4B04E01E4CA342BAD14FF080531D4C9E
:1020A0002A43C4F82435C4F86C25036903C983E8BE
:1020B0000300002030BD184BF1E7184BEFE74FF459
:1020C0009E23ECE74FF4A033E9E74FF41C33E6E737
:1020D0004FF41D23E3E7124BE1E74FF46C13DEE707
:1020E000104BDCE7104BDAE74FF46503D7E70F4BF3
:1020F000D5E74FF08063D2E700B0130000A04E0098
:1021000000F0EB0000E0D70190D0030000705F0703
:1021100040420F000020004000509D00005027006A
:1021200000F0750000B0AF0300903A0100D0BE0E81
:10213000F8B50E4602F0C9F91A4D78BB64240127A0
:10214000BFF35B8F55E8003F002B03D145E80072D9
:10215000002AF7D1BFF35B8F07D021200021013C7B
:1021600001F0AEFB14F0FF04EAD10F4C0023C4F8D9
:102170001C31D4F81C310123A360C4F81C654FF452
:102180007A76D4F81C3123B9012002F0F7F8013E29
:10219000F7D10123E36000232B60F8BD01232B60FE
:1021A000E3E700BFF80200200020004010B54FF028
:1021B000A043134C00224021C4F80025C3F80815A1
:1021C0000321C3F81817C3F820270823C4F81435CF
:1021D0000623C4F80C354FF0FF33C4F80835016905
:1021E000C4F81035FFF7F0FE40B90423C4F80035F9
:1021F000C4F80801D4F808310123236010BD00BFE2
:1022000000200040036803F01F025B09012B0260FD
:10221000024818BF4FF0A040704700BF00030050B5
:10222000F0B54B79012B2AD0032B25D110268B79C1
:10223000032B21D1CC792CB1012C1DD143685B68D3
:102240009B0719D00A7912B1022A15D10E220B6808
:102250004568B3F5164F2D6865D02DD8B3F5165FD8
:1022600064D016D8B3F5966F62D00AD8B3F5967FCE
:1022700061D0B3F5167F61D06FF0850052E0002683
:10228000D5E7B3F5166F5CD0B3F5965FF4D1374B55
:102290003CE0B3F5E14F57D007D8B3F5615F55D0B7
:1022A000B3F5964FE8D1324B30E047F61227BB42E8
:1022B000E2D14FF4000329E0B3F5613F48D013D8D1
:1022C000B3F5963F47D009D84DF6C027BB4244D05E
:1022D000B3F5614FD0D14FF46B0317E0B3F5E13F95
:1022E000CAD14FF0EB7311E0B3F5612F38D008D8A5
:1022F000204FBB4237D0B3F5E12FBDD14FF0E8639B
:1023000004E01D4FBB42B7D14FF08053C5F82435D0
:10231000036903C9344322430433C5F86C2583E8B9
:1023200003000020F0BD4FF41D03EFE7134BEDE772
:102330004FF49E23EAE74FF4A033E7E74FF41C3352
:10234000E4E74FF41D23E1E70D4BDFE70D4BDDE73D
:102350004FF06C73DAE70C4BD8E74FF46503D5E721
:102360004FF07063D2E74FF08063CFE700B0130007
:1023700000A04E0090D0030040420F000050270004
:1023800000C0750000F03A0000903A01F8B5066907
:1023900005460F4602F099F810B92C4B1B7883B90B
:1023A0004FF02003EFF3118483F31188BFF36F8F95
:1023B000686801F098FF28BB84F31188BFF36F8F22
:1023C000EEE76424686801F08EFF70B9012001F027
:1023D000D5FF013CF6D10021212001F071FAF0E790
:1023E00084F31188BFF36F8FF5E74FF02003EFF30D
:1023F000118483F31188BFF36F8F686801F073FF56
:102400000028EDD006F8107F69680B680122C3F838
:102410004465C3F848250022C3F82021D3F82001E1
:10242000C3F85821D3F858214A68D20641BF082280
:10243000C3F800254FF48002C3F8042301229A60F8
:1024400084F31188BFF36F8FF8BD00BFE203002053
:102450002DE9F7430546002201212820FEF7FCFF65
:102460002820FEF7DBFF6B682E691C680027C4F884
:1024700000752221356001A80191FFF7C3FE019B81
:102480004FF0010808FA03F3C0F8083501A80191DC
:10249000FFF7B8FE019B03F5E073032240F8232009
:1024A0004FF0210901A8CDF80490FFF7ABFE019B86
:1024B00003F5E07340F82370C4F80C152969C4F8DB
:1024C00014954FF0FF33C4F808350431C4F81035C3
:1024D0002846FFF7A5FE0746002844D16B685B68D5
:1024E000190719D506F1120000F01EFA214B984287
:1024F0003DD1B07CC30003F1804303F5F83304F110
:102500000C0204F59071C3F81015C3F814251A4A8B
:1025100008FA00F0C2F804050823C4F800350023C7
:10252000C4F81031D4F8103106F11103C4F8343571
:102530000123C4F8383523606B685B681A075CBFF9
:102540004FF48072C4F80423DB0644BF4FF48003C9
:10255000C4F8043310360023C4F84465C4F8483581
:102560000123A360E360384603B0BDE8F0836FF059
:102570000407F8E70000AD0B00F001404FF0805376
:10258000D3F83021082A06D1D3F83431052B02D8EC
:10259000024AD05C70470020704700BF5A4A0000D2
:1025A0004FF08053D3F83021082A06D1D3F83431C4
:1025B000052B02D8024AD05C70470020704700BF4C
:1025C000604A0000024AD2F80034002BFBD070476A
:1025D00000E0014010B5FFF7D1FF40B14FF080435C
:1025E0000022C3F80C21C3F81021C3F83825FFF7E7
:1025F000C5FF002846D04FF08052554BD2F8041446
:10260000C3F82015D2F80814C3F82415D2F80C1416
:10261000C3F82815D2F81014C3F82C15D2F81414E6
:10262000C3F83015D2F81814C3F83415D2F81C14B6
:10263000C3F84015D2F82014C3F84415D2F8241476
:10264000C3F84815D2F82814C3F84C15D2F82C1446
:10265000C3F85015D2F83014C3F85415D2F8341416
:10266000C3F86015D2F83814C3F86415D2F83C14D6
:10267000C3F86815D2F84014C3F86C15D2F8442496
:10268000C3F87025FFF78CFF18B1324B324AC3F8FC
:102690008C26FFF785FF18B1304BFB22C3F81825B5
:1026A000FFF77EFF70B14FF080414FF08053D1F8BB
:1026B000E42ED3F8583222F00F0203F00F03134335
:1026C000C1F8E43EFFF76CFF20B1254B4FF40072D8
:1026D000C3F84026FFF752FF48B14FF08043D3F8CC
:1026E0000024D20744BF6FF00102C3F800244FF06A
:1026F0001023D3F80022002A03DBD3F80432002B86
:1027000022DA184901234FF01020C1F804351224B1
:10271000FFF758FFC0F80042FFF754FFC0F804422B
:10272000FFF750FF0023C1F80435FFF74BFFBFF35D
:102730004F8F0D490D4BCA6802F4E0621343CB6022
:10274000BFF34F8F00BFFDE7094B0A4A1A6010BD67
:1027500000C00040005000404881030000F00040ED
:102760000090024000E0014000ED00E00400FA05A6
:10277000580000200090D003044B1A7922B901229E
:1027800018609A8002487047024870470003002092
:102790000000AD0B0C00AD0B38B510B1012817D0FF
:1027A00038BD4FF080440223C4F80833C4F8040154
:1027B000D4F804310123E36042F21075D4F81834E0
:1027C000DB03EDD5012001F0D9FD013DF6D1E7E7AE
:1027D0004FF080440023C4F80803C4F80031D4F853
:1027E0000031606042F21075D4F80C34D4F80C2437
:1027F000D20303F0010305D523B1012001F0BEFD92
:10280000013DF1D1014B00225A71C9E700030020BC
:102810004FF0804310B5D3F800216AB10022C3F80D
:102820000021D3F800210122C3F80823114B587965
:1028300010B95A711B6898474FF08043D3F80421B0
:1028400072B10022C3F80421D3F80421D3F818246C
:10285000D3F81814920704D10122C3F818259A60FE
:1028600010BD0222C3F80823024BBDE810401B68CC
:102870000120184700030020012303FA00F0C3B22F
:1028800093B14FF02003EFF3118183F31188BFF36D
:102890006F8F064AD36D23EA0000D06581F311885B
:1028A000BFF36F8F0248704702487047080300204B
:1028B0000000AD0B0400AD0B2DE9F0410546DFF83B
:1028C0005CE01748DFF85C800024FF220126E3B2B9
:1028D0004FF02001EFF3118C81F31188BFF36F8F5C
:1028E00022FA03F1C9070AD5DEF85C1006FA03F7ED
:1028F000394201BF3943CEF85C1040462B708CF34F
:102900001188BFF36F8F404505D006FA03F39A4351
:1029100004F10104DBD1BDE8F08100BF0803002011
:102920000200AD0B0000AD0B2DE9F041144A154E2D
:10293000154F0546154800244FF0010E5FFA84FC40
:102940004FF02003EFF3118883F31188BFF36F8FEB
:102950000EFA0CF3134207D031680B4201BF194342
:10296000316085F800C0384688F31188BFF36F8F57
:10297000B84203D09A4304F10104DFD1BDE8F081ED
:10298000FFFF0F00680300200000AD0B0200AD0B3D
:102990002DE9F04190F80480244D342707FB08F717
:1029A000EC1994F82D60002E3DD1A66084F83060BB
:1029B00084F82F600E6863604B7B84F83230EA51F4
:1029C0001B4B00687709012F06F01F040CBF1F4640
:1029D0004FF0A04704F5E07440F20C6C47F824C0B7
:1029E0004C684FEA541E04F01F07BEF1010F18BFD8
:1029F0004FF0A04307F5E07743F827C08B68C0F895
:102A00000865C0F80C45C0F824351AB140F307300A
:102A1000FEF704FD342303FB08550648012385F81F
:102A20002D30BDE8F0810448FBE700BF6C030020B7
:102A3000000300500000AD0B0500AD0B03680279E8
:102A40000621C3F80015044B342101FB0233022296
:102A500083F82D20704700BF6C03002001790B4BD9
:102A60000268342000FB0133094900209860C2F855
:102A70000813D2F8001221F4BC51C2F80012C2F8B7
:102A80000005012283F82D20704700BF6C03002051
:102A900002029C012DE9F047B04F90F804C0046891
:102AA0004FF0340E0EFB0C7E00238EF82E30CB68D8
:102AB00003F06043B3F1005F0D46164603D0A84D06
:102AC0002846BDE8F087A74BC4F808339EF82F309E
:102AD00003F0FF0A2BB1DEF80830A34DC4F804332D
:102AE000EEE712F0140F0CBF012300238EF82F30F5
:102AF0008946B9E80F000EF10C08A8E80F00D9F8D4
:102B00000030C8F80030C6F300138EF83030CEF82D
:102B100020606B78C4F88835C4F804A1D4F8043177
:102B2000C4F824A1D4F82431C4F860A1D4F86031E9
:102B3000C4F848A1D4F8483116F0010318BF0123A6
:102B4000C4F8503516F0020318BF0123C4F840350D
:102B50002A78032A00F2B380DFE802F0829E67023F
:102B60002B6903F06041B1F1005FA8D14FF480718F
:102B7000C4F80012E8686968C4F84405C4F8481548
:102B80000021C4F85011D4F8500101202062A06047
:102B9000D4F850010028FBD0C4F85011D4F85011DB
:102BA000A968C4F84435342303FB0C73C4F84815F2
:102BB0004FF48021996008236C4D310703D4032A18
:102BC0001CBF0122E250342303FB0CF3F918FA581E
:102BD000002A77D10121D4F84831D4F80401002823
:102BE00040F08880003B18BF0123D4F8240100285E
:102BF00000F08680C4F82421D4F82401D4F860E1E0
:102C0000D4F80002BEF1000F02D010F4007F05D10D
:102C100021626161BEF1000FDDD00023C0056FD5D8
:102C2000C4F84821D4F84831D5E76B68E968C4F89E
:102C30004415C4F848352B6903F06041B1F1005FD9
:102C40007FF43DAFA968C4F834354FF48453C4F819
:102C50003815C4F80032342303FB0C73022112E050
:102C60006B68E968C4F8441516F0200FC4F84835BD
:102C70004FF034030BD04FF48071C4F8001203FB03
:102C80000C734FF4802199600123236293E74FF482
:102C90000071C4F80012DFE76B68E968C4F8341506
:102CA000C4F838354FF48053C4F80032342303FBA2
:102CB0000C73022199600123236200237CE72C4DD1
:102CC00008237AE7720744BF00238B60730606D49B
:102CD000342303FB0C739A6842F002029A60342397
:102CE00003FB0C77BB6843F40073BB60BB68C4F89C
:102CF0000433E5E6C4F80421D4F80431012374E771
:102D0000002B3FF468AF3421D4F8C434C4F8C43481
:102D100001FB0C72002082F82F008BB1154A164D72
:102D200013F0010F18BF154613F0020F02F1010254
:102D300018BF154613F0040F104B18BF1D46BFE611
:102D400073063FF5BDAE0CFB0171204601F04EFB52
:102D5000094B002808BF1D46B2E600BF6C030020E7
:102D60000A00AD0B02029C010B00AD0B0000AD0B85
:102D70000400AD0B0000AE0B0100AD0B0200AE0B6A
:102D8000F0B55A4D5A4CD5F8243187B0FBB1002329
:102D9000C5F82431D5F82431D5F80431BBB9A3687E
:102DA000C5F808330223A360A368C5F80433D5F837
:102DB00060311BB1D5F800329E0503D44B4B012284
:102DC0001A625A61012384F82E3007B0F0BDD5F89D
:102DD0000431002B53D00023C5F80431D5F8043159
:102DE000236A5D060AD494F82E303BB940493F4827
:102DF00001F0FCFA80F0010084F82E00236A13F041
:102E0000040721D13B4E94F830C00FCE01AD0FC561
:102E100033682B60354BC3F86071D3F86021C3F879
:102E20005C71D3F85C21BCF1000F02D094F82E2025
:102E300052B10022C3F80022A2602F4AC3F808232F
:102E40002E4B0822C3F88021284AD2F8C434C2F895
:102E5000C43498073CD501238DF8003094F8303005
:102E60000BB984F82F30236A5B0703D594F82E3012
:102E7000002BAAD0D4E9003168469847A5E7C5F8E9
:102E80004831D5F84831237B83B91A4F0FCF01AEB3
:102E90000FC63B68336094F83030002BD4D1C5F8AE
:102EA0000032A360144BC5F80833C9E74FF4007330
:102EB000C5F8003240F20223A36003F1CE73C5F8D7
:102EC0000833A368C5F804330123AB602B627CE7A9
:102ED000590701D50223BFE7DA0701D50323BBE772
:102EE00094F82E30002BB7D00423B5E70030004013
:102EF0006C0300207803002002029C0100E100E046
:102F0000036803F01F025B09012B0260024818BF2F
:102F10004FF0A040704700BF00030050F7B50646D1
:102F200001F094FA084601F091FA01A80196FFF722
:102F3000E7FF019B03F5E0730C4640F20D6140F89A
:102F4000231001A80194FFF7DBFF019B03F5E07359
:102F5000092540F82310042001F010FA012701A8E8
:102F60000194FFF7CDFF019AD0F81035D340DB076D
:102F700015D401A80196FFF7C3FF019B07FA03F3DD
:102F8000C0F80C35042001F0F9F9304601F05EFA82
:102F9000013D042001F0F2F915F0FF05DFD101A891
:102FA0000194FFF7ADFF019A01239340C0F80C355F
:102FB000042001F0E3F9204601F048FA042001F072
:102FC000DDF901A80194FFF79BFF019AD0F81035B5
:102FD0000348D34003F00103C01A03B0F0BD00BFA3
:102FE0000100AD0B0E4B70B553F82040013053F883
:102FF0002060A64200D870BDD4E900352846984725
:1030000065B1EB6830B10028B8BF4042FF28A8BFC7
:10301000FF2018705A7842F001025A700834E8E72D
:10302000DC49000070B5054610B90024204670BD8B
:103030000378002BF9D00E4C0E4EB44208D10C4C44
:10304000B442F2D0204601F00FFA50B91834F7E735
:10305000204601F009FA10B12368AB42E6D01834DB
:10306000EBE72168284600F0F6FF0028EED1DDE707
:10307000640000200C0100200248034A0021121ABB
:1030800001F020B810010020E403002008B50A4B2D
:10309000012202201A70FFF7A5FF00F0D7FD0320E0
:1030A000FFF7A0FF00F0C4F8FDF7B0F9034A137B67
:1030B00023F00103137308BDE203002090010020F8
:1030C0002DE98048DFF8E090A7B089F30888374DF4
:1030D000374E6B69DFF8DCA0374F43F400730024F0
:1030E0006B61E02385F82230EC772C766C76AC7639
:1030F0006B6A43F4E0236B62FEF73EFBFEF7F2F9E6
:103100004FF0FF33AB62EB62FEF7D8FB2B4DFEF7BF
:1031100067FB40F20113ADF8243006ABAB60CDE99C
:103120001F4401F0A0F92046FFF75CFF0120FFF7E4
:1031300059FF4FF0010B00F02FFB214B6E6221492C
:1031400005934FF480625346CDE9034BCDE901442A
:103150000094304600F03CF8737B804623F0040373
:103160003046737301F016FA0F23CDE90243164976
:10317000164B4FF4A072CDE904B4CDE900543846A3
:1031800000F026F87B7BEF6023F004037B7305F1EE
:103190001803C5E906332C75C5F80490524641461C
:1031A0003046FEF78DF900BF2811002000ED00E049
:1031B000900100208D30000010010020A0030020AD
:1031C000664A0000E8030020E8070020E93200001A
:1031D0002DE9FF410E9E0673042646730D9E8673ED
:1031E00000F15805D61DC0E916550C9A002526F0A9
:1031F0000706C0E90655C0E919168560C573C5669E
:1032000002920B9A019201EB06080A9A009242463A
:103210000446FEF739F9054B65659B6803B11B6FE2
:103220002367404604B0BDE8F08100BFA003002042
:103230002DE9F043294C2A4D87B02646AE4204F1D1
:1032400030040FD300F006F9244CDFF898904FF4C7
:10325000004640F2E737AC4220D307B0BDE8F04368
:1032600000F0B0B954F8043C059354F8103C0493B2
:1032700054F8143C039354F8183C029354F81C3C43
:10328000019354F8203C009354E90C0154E90A23BB
:10329000FFF79EFF54F8303C5E65CEE7636A5A1C28
:1032A0000DD023EAE37300213846C3FB060151EA3F
:1032B000C333D4F8008004D1404600F04FFA3034D4
:1032C000C9E74FF47A720023FCF71AFF02460B4657
:1032D00008F11800494600F0CBFBF0E70C01002094
:1032E0000C010020B545000008B5094C4FF0200244
:1032F000EFF3118382F31188BFF36F8F01F0AAF906
:103300002062FDF77FFD0028F0D1FEF7F1F8EDE730
:10331000A003002038B504464FF02003EFF31185D9
:1033200083F31188BFF36F8F01F066F948B1002273
:10333000826701F02FF929460548BDE8384000F0C2
:1033400077B8D4E902329A4218BF0133A360F2E79A
:10335000E303002013B54FF02004EFF3118184F351
:103360001188BFF36F8F846844B1013C846081F39E
:103370001188BFF36F8F002002B010BD52EA030422
:1033800006D181F31188BFF36F8F6FF00F00F3E761
:10339000CDE900230246024800F0CEF8ECE700BF7A
:1033A000E303002010B5084C23685BB1FDF7DAFF9A
:1033B00003462068054A0344BDE81040136100211C
:1033C00001F058B910BD00BFD8030020A0030020B1
:1033D000F8B504460D464FF02003EFF3118683F352
:1033E0001188BFF36F8F0F4B00214FF4004740F25D
:1033F000E73019614FF47A720023E4FB0701FCF710
:103400007FFE002C084B09DC1860084B1D60FFF79D
:10341000C9FF86F31188BFF36F8FF8BD0228B8BFCC
:103420000220F1E7A0030020D8030020D4030020ED
:1034300049B9EFF3058030B9054B5A6A9B689A4247
:1034400001D0FDF79DBF81F31188BFF36F8F7047E7
:10345000A00300204FF02003EFF3118183F31188C4
:10346000BFF36F8F044B9A68D37B013BD37381F317
:103470001188BFF36F8F7047A003002038B5024654
:103480000C480D4D01F056F8044600B9EC68AB68E5
:103490004AB95A7BD20606D1A26922B9DA897F2AB3
:1034A00001D96B6238BD9C4201D0FFF77BFF6C6293
:1034B000F8E700BFC8030020A003002008B590F97A
:1034C0000D20437B002A014604DA03F07F03437397
:1034D00001F008F8044B9868431A58425841BDE877
:1034E0000840FFF7CBBF00BFA00300202DE9F0414B
:1034F000064615461C464FF02003EFF3118783F371
:103500001188BFF36F8F01F01BF887F31188BFF3A9
:103510006F8FB4F1FF3F08BFB5F1FF3F08D02A46D7
:10352000234606F118000349BDE8F04100F0A0BAB7
:10353000BDE8F081B545000010B5074B9868074B12
:103540000C4618601146DDE90223FFF7CFFF204645
:10355000BDE81040FDF714BFA0030020D0030020F9
:1035600070B50446183001F05FF84FF02003EFF318
:10357000118683F31188BFF36F8F94F90D20637B5D
:10358000002A05DA03F07F036373204600F0AAFFE8
:103590000B4D637BA86843F010036373031B584211
:1035A0005841FFF76BFF86F31188BFF36F8FAB684D
:1035B000A34203D1BDE8704000F0B2BF70BD00BFB0
:1035C000A003002010B54FF02003EFF3118483F324
:1035D0001188BFF36F8F084B9A68D37B0133D37385
:1035E0000020FFF74BFF84F31188BFF36F8FBDE816
:1035F000104000F095BF00BFA003002070B590F907
:103600000D20437B002A014604DA03F07F03437355
:1036100000F068FF4B7B154A63F07F034B73D2E9E0
:103620000A3402F12805AB421BD0D3B191F90E60E8
:1036300093F90E0086420FD0801B00280CDD5868DD
:10364000C1E90030016059609068431A5842BDE8F2
:1036500070405841FFF712BFA34202D01B68002BF5
:10366000E6D1C1E900542160D162EDE7A00300205A
:1036700038B501464FF02003EFF3118483F311882E
:10368000BFF36F8F154B164A98681568A84206D18C
:10369000FFF788FE84F31188BFF36F8F38BD0025D4
:1036A0001560104A1268BAB1C2897F2A14D8427BC9
:1036B000D20611D10C4A90F90E50126895420BDBDC
:1036C0000A4A904208D01A698A4202DCFFF796FF44
:1036D000DEE7521A1A61DDE70022FBE7A0030020B3
:1036E000D0030020D8030020D403002010010020C4
:1036F00070B490F90D20437B002A2ADBDA0628D12A
:10370000826932BB144A63F07F034373D2E90A34FF
:1037100002F12805AB4217D0B3B190F90E6093F9CE
:103720000E108E420BD0891B002908DD5A68C0E9B3
:1037300000321060586070BC0020FFF79FBEA342AB
:1037400002D01B68002BEAD1C0E900542060D0628F
:10375000F1E770BC704700BFA003002010B54FF028
:103760002002EFF3118482F31188BFF36F8F427B45
:10377000510704D484F31188BFF36F8F10BD22F07A
:1037800004024273FFF7B4FF21460248BDE810402F
:10379000FFF74EBEE3030020044B002103F1280293
:1037A000C3E90A220846FFF713BE00BFA0030020AA
:1037B000F8B54FF02003EFF3118583F31188BFF3C1
:1037C0006F8F1A498868437B03F07F03437300F0CF
:1037D00089FE8B685A7B084662F07F025A7350F864
:1037E000282F82421CD0DAB1CF6A93F90E6092F989
:1037F0000E40A6420FD0A41B002C0CDD5168C3E97B
:1038000000210B6053600120FFF738FE2846BDE819
:10381000F840FDF7B5BDBA4202D01268002AE6D1E1
:10382000CA6AC3E900021360CB62ECE7A003002080
:1038300050EA01032DE9F04105460E4603D1FFF79A
:10384000B7FF002033E06FF00104241A4FF0FF337C
:1038500063EB0103012C73F1000302DA00F024FF93
:1038600044194FF02003EFF3118883F31188BFF35D
:103870006F8F104F104BB8681860FFF71FFEB868C5
:103880000E492A463346183000F0F2F8BA68537BE6
:1038900043F0100353734046FDF772FD00F004FF40
:1038A000201A63EB0303012873F10003C9DBBDE8B1
:1038B000F08100BFA0030020D0030020B545000028
:1038C000B1F1FF3F08BFB0F1FF3F08B506D1084B8B
:1038D0009868FFF745FE4FF0FF3008BDFFF7A8FFDF
:1038E0004FF47A7380FB0303C00B40EA4340F4E7D4
:1038F000A0030020014B9868704700BFA003002080
:103900002DE9F04104464FF02003EFF3118683F3D5
:103910001188BFF36F8F437B1A0705D586F3118893
:10392000BFF36F8FBDE8F08123F0200242F0080161
:10393000D20920D14173A36813B1204600F0DAFD0B
:1039400004F1180000F070FE04F158074FF0000871
:10395000A56DBD4200D0B5B90120FFF78FFD104B1A
:103960009B68A342DAD1EFF30583002BD6D1304612
:10397000FDF706FDD2E703F05F0343F0080343734E
:1039800000F0B0FDD7E7284600F0B4FD05F11800BF
:1039900000F04AFEC5F878802846FFF7A9FED7E771
:1039A000A003002008B50648064A0749121A00F08D
:1039B0005EFBBDE80840054A0549064800F057BBD4
:1039C000000000200C010020B04A000000000000B0
:1039D000B04A000000000020034B1B680BB9FDF744
:1039E000C1BC0020704700BFDC030020114B10B5A4
:1039F0001C689C4208BF0024FFF7EEFF03466CB131
:103A0000D4E90402C01A62EBE373012873F10002E7
:103A10000DDBB0F1004F73F1000301DB6FF00040EC
:103A2000054B1B6913B19842A8BF184610BD002072
:103A3000F6E700BF5C000020A003002030B503685B
:103A400068B10A4A5268904209D043B1D3E90421CF
:103A5000D0E90445121941EB0501C3E9042142688C
:103A600013605A600023C0E9003330BD5C000020C1
:103A7000B3F1FF3F08BFB2F1FF3FF8B504461F4660
:103A8000154667D081604FF02003EFF3118683F372
:103A90001188BFF36F8F6FF00102531B4FF0FF3C93
:103AA0006CEB0703002B1BDB2B4BD3E90013521AE3
:103AB0006CEB0303551B63EB0703012D73F100024D
:103AC000BCBF01250023C0E904532448D0E9003CD1
:103AD000834218D1C4E9000CCCF80040446026E0D1
:103AE000FFF77AFF013547F100072D1847EBE07724
:103AF000C4E90457E9E7521A65EB07056345C4E9D1
:103B00000425E7D01B68002BE4D0D3E90417D4E9DF
:103B100004258A4275EB070EEDDA8A1A67EB050574
:103B2000C3E904255A68C4E9003214605C60036884
:103B300083420BD09C4209D1FFF758FF18B1084BC4
:103B40001B69834202D00021FDF7DAFB86F311885E
:103B5000BFF36F8FF8BD00BF100200205C00002093
:103B6000A00300202DE9F8430546FFF781FD4FF043
:103B70002003EFF3118483F31188BFF36F8F244E7A
:103B8000DFF890803560244DD8F800003268404559
:103B9000D5E9001E4FEAE2770BD050B1D0E9043CE2
:103BA0009A4277EB0C0916DA9B1A6CEB070CC0E90A
:103BB000043C52184EEB0707C5E900270025356085
:103BC000FFF714FF2946FDF79BFB84F31188BFF331
:103BD0006F8FBDE8F88359184EEBE377D31A336043
:103BE00000220023C0E90423C5E90017FFF726FFE0
:103BF00084F31188BFF36F8F836898474FF02003D9
:103C0000EFF3118483F31188BFF36F8FBCE700BF1C
:103C1000DC0300205C0000201002002010B54FF0F3
:103C20002003EFF3118483F31188BFF36F8FFDF747
:103C300099FB054AD2E90031C01841F1000184F333
:103C40001188BFF36F8F10BD10020020024A034994
:103C5000034800F027B800BFAD4A00006B4A0000DF
:103C6000874A0000034658B1426802F00302012A65
:103C700003D0032A04D1026812B100209860704773
:103C80006FF0150070474268816002F00302032A5A
:103C90004FF0000203460CBF006810465A607047A0
:103CA000002070470FB407B504A951F8040B019127
:103CB000FCF7C2FB03B05DF804EB04B07047038B64
:103CC00013F0070305D10368002B0CBF002003206D
:103CD0007047022B05D1438B002B14BF002004201A
:103CE0007047012B05D10368002B0CBF0020052075
:103CF0007047002070472DE9F0410D4607461946F0
:103D0000281D90461E46FFF7BEFF044638B13346D5
:103D1000424629463846A446BDE8F0416047BDE822
:103D2000F08110B44FF02004EFF3118284F3118876
:103D3000BFF36F8F416110BC0121FCF78BBB10B545
:103D40000C4640B139B1081DFFF78CFF28B9A368B4
:103D500033F0030301D06FF0150010BD38B50C46E9
:103D6000054658B151B10B6843B14B6833B11C22C1
:103D7000002100F0A7F92C61002038BD6FF015007C
:103D8000FBE770B504460E46FFF7D9FF051E31DB91
:103D90004FF02003EFF3118183F31188BFF36F8F8E
:103DA000638B208B4FF6FF75AB4200F007022ED0DD
:103DB000022A0ED1013363831546012381F3118852
:103DC000BFF36F8FB3B1002331462046FFF793FF57
:103DD00010E0830701D0062A0ED100233360636808
:103DE00093B9C4E90066154662B90A462046022125
:103DF000FCF730FB284670BD052A0CBF6FF0850527
:103E00006FF004050023D9E71E606660EBE76FF0F2
:103E10000A05F7E7044608B5084611461A46A047C2
:103E2000FFF768FDFDF7CAFC2DE9F84F9A46D378F5
:103E30006F2B80460F461546A3F1410B29D024D89D
:103E4000582B14BF0A261026DDF82890324600238E
:103E500040463946FCF754F9092AD4B21ED830340A
:103E6000B045E4B277F1000309F8014D01D3D14523
:103E700011D82B789B0605D5082E15D1AB7843F0C9
:103E80000803AB704846BDE8F88F03F0F703702BCA
:103E9000D7E70826D8E780460F46D7E7BBF1190FCA
:103EA00094BF37345734DBE7102EEBD1AB7843F0B7
:103EB0001003E6E72DE9F0410746884615461E4601
:103EC0001446B442A4EB050002D33EB923782BB1CB
:103ED00014F8010B4146B8470028F2DABDE8F0813A
:103EE00070470022C0E90022826070470369C9B2AE
:103EF0000C2201FB0233186C00F0070070474FF0F2
:103F00002003EFF3118283F31188BFF36F8F0368EF
:103F100003F0C00343F00203036082F31188BFF390
:103F20006F8F7047034670B50069C9B24FF0200427
:103F3000EFF3118684F31188BFF36F8F0C2505FB17
:103F40000104246C14F0C00401D0A24210D105FB7E
:103F5000010001220264002086F31188BFF36F8FF5
:103F600028B95B6803EBC1014B689847002070BD1E
:103F70004FF0FF30F0E78022FFF7D4BFF8B5069F7F
:103F800004690546C9B24FF02000EFF3118C80F3AD
:103F90001188BFF36F8F0C2606FB0146306C00F0D2
:103FA000070EBEF1010F11D1376400268CF3118882
:103FB000BFF36F8F46B90C2000FB0144C4E90E2308
:103FC0006B6853F8313098473046F8BD00F0C000B8
:103FD000874214BF4FF0FF366FF07706E6E713B560
:103FE00080240094FFF7CAFF02B010BD006910B42E
:103FF000CBB21C2403FB0400002110BC104700209E
:1040000000F0C8B90020FEF7C7BB1046FFF782B921
:10401000704770470021012000F000B800F03ABA64
:104020000146006800F036BA08B5FDF779FABDE838
:104030000840FDF7A9BB034600201A5C02B970478F
:104040000130FAE7034600201A5C0AB1884200D129
:1040500070470130F8E7431E013913F8012F11F8BA
:10406000010F824201D1002AF7D1101A7047F0B532
:1040700081EA0004A50703460BD0013B0A449142A4
:104080001BD1F0BD002AFCD011F8014B03F8014B05
:10409000013A9C07F6D122F003041D1F96080F1960
:1040A000B94205D16FF0030505FB06222344E4E77E
:1040B00051F804CB45F804CFF2E711F8014B03F8AF
:1040C000014FDCE770B5C9B20446A30711D141EA3C
:1040D000012343EA034522F00303960823449C424C
:1040E0000DD16FF0030404FB06221A44934209D158
:1040F00070BD002AFCD004F8011B013AE5E744F842
:10410000045BECE703F8011BF0E74FF0FF3070476A
:10411000FEF760BA84B004AB03E907009DF80430F1
:10412000062B08D14FF080430122C3F80025BFF3CE
:104130004F8F20BFFDE704B0704784B004AB03E9A4
:104140000700002383F31188BFF36F8F04B070471B
:1041500043685B68D3F810350B60002070474368F4
:104160005B68D3F8040542400A404240C3F8042586
:104170000020704743685B680020C3F8081570474B
:1041800043685B680020C3F80C15704743685A68A1
:10419000D2F804354B40C2F804350020704703695B
:1041A000586830B558B10024814212D108689D6822
:1041B00054B98D42586000D19860002008606AB9F7
:1041C000002030BD2846EFE78D42206008BF9C608C
:1041D000F3E705680446002DF4D13AB198685A68AF
:1041E0000A6059600028EBD19960EAE76FF015008A
:1041F000E7E770B50E461546014650B104688A6877
:104200002A4002D04B683046984714B121462468B2
:10421000F5E770BD2DE9F0410769D0F80480FC682E
:10422000D7E90532134324EA0304012600250CB91B
:10423000BDE8F081264210D0396998F80830E9408D
:1042400001F00101C1F1030105F01F00C9B240EA0C
:104250004310FDF715FC24EA060401357600E6E775
:10426000CA07436805D4C1F34202012A04D0022AD6
:104270000BD06FF0150070471B684FF0CC72C3F87D
:10428000242503690020596270471B684FF0C862FB
:10429000F5E702690B4692E8030083E8030000207B
:1042A000704702690B46D2E9010183E80300002050
:1042B000704743681B68D3F88004C3F880047047D4
:1042C000436802691B68D3F8100148B1527C0A7038
:1042D0000020C3F81001D3F8102101221A607047A2
:1042E0004FF0FF30704702680346D2F8580140B9DA
:1042F0005B681B0706D4D2F82001003818BF0120E4
:1043000070470120704743681B68D3F80423D10528
:1043100018D5D3F82021AAB14FF02001EFF3118274
:1043200081F31188BFF36F8FD3F8201131B10021D1
:10433000C3F82011D3F820110121D96082F311882C
:10434000BFF36F8F42685268D20615D54FF0200137
:10435000EFF3118281F31188BFF36F8FD3F85811F7
:1043600011B10021C3F800154FF48001C3F8081300
:1043700082F31188BFF36F8F7047004700F098B940
:1043800008B50020FDF75AF818B9BDE80840FDF758
:1043900045B808BD10B101281DD070474FF08043CB
:1043A000D3F81824D3F81814C90312D502F0030265
:1043B000012A0ED1C3F818254FF080430022C3F81C
:1043C0000421D3F804210222C3F8042301229A60B5
:1043D00070470022EEE74FF080430022C3F800212F
:1043E000D3F80021C3F80403186070470A7B034622
:1043F000032A29D8DFE802F0212519028A68500330
:1044000004D5D3F84C250869904207D18A68520335
:104410001AD4D3F84C254969914215D000200622C0
:10442000C3F80005C3F800257047D3F84C25086988
:104430009042F3D1D3F83C25EDE7D3F84C25096938
:10444000EAE7D3F83C25FAE70120704707B5019069
:1044500001A8FEF755FD019A01239340C0F80835E5
:1044600003B05DF804FB704738B1C3681888C0F327
:104470000800A0F580735842584170474FF0200261
:10448000EFF3118382F31188BFF36F8FFEE708B556
:10449000FFF7F4FFF8B505460E464FF02003EFF3A3
:1044A000118783F31188BFF36F8FFFF723FA31462B
:1044B00004462846FFF7EBFF87F31188BFF36F8FA1
:1044C0002046BDE8F840FDF779B9EFF305800038E4
:1044D00018BF0120704708B5FCF77EFCBDE8084016
:1044E000FFF797BDD0E9003213605A600023C0E99E
:1044F0000033704708B5FFF7F5FF437B23F0020355
:1045000043730023836008BD034620B9EFF305829F
:104510000AB9FCF735BF83F31188BFF36F8F70477B
:104520004FF02003EFF3118083F31188BFF36F8FF7
:10453000FFF7EABF03460068834208BF00207047C8
:1045400038B504460D46FEF7B9FF637B43F002031E
:10455000637395B12B68A5609D4215D0A3B194F902
:104560000E1093F90E20914208D0521A002A05DD50
:104570005A68C4E9003214605C6038BD6A689342CE
:1045800002D01B68002BECD16B68C4E900531C609F
:104590006C60F2E710B54FF02003EFF3118483F362
:1045A0001188BFF36F8FFFF7A3F884F31188BFF36F
:1045B0006F8F10BD10B501464FF02003EFF311844B
:1045C00083F31188BFF36F8F10F80B3C13F0280FA3
:1045D0000DD151F8103C18380BB1FFF78BFF11F8D3
:1045E0000B3C23F0140301F80B3CFFF781F884F334
:1045F0001188BFF36F8F10BD38B54FF02003EFF374
:10460000118583F31188BFF36F8FFFF793FF044683
:1046100020B1FFF76FFF183000F006F885F311881E
:10462000BFF36F8F204638BD10B54FF02002EFF377
:10463000118482F31188BFF36F8F03683BB1FFF7DA
:10464000FDF9002084F31188BFF36F8F10BD6FF068
:104650001500F7E710B54FF02003EFF3118483F353
:104660001188BFF36F8FFFF7C1F984F31188BFF38F
:104670006F8F10BD70B504460D464FF02003EFF369
:10468000118683F31188BFF36F8FFFF7AFF901280D
:1046900005DDA04203DB29462046FCF731FE86F308
:1046A0001188BFF36F8F70BD08B5FFF7B7FA08BD6B
:0A46B00008B1FDF751B970477047DB
:0246BA00FFFF00
:0846BC0074BAFF7F0100000049
:1046C4002919000000000000450F000064000020CC
:1046D400AD2100007C000020512400009400002043
:1046E4007D0E000000000000B5120000AC000020A8
:1046F4006D1900000000000091190000DC0000208A
:1047040091190000C4000020B91D0000F40000202D
:10471400112800007B430000000000001540000049
:104724000000000015400000812D00007B430000C4
:1047340000000000154000000000000015400000CB
:10474400000000003D1B00000000000015400000B8
:1047540000000000154000000000000015400000AB
:10476400000000001540000000000000154000009B
:10477400000000001540000000000000154000008B
:10478400000000001540000000000000154000007B
:104794000000000015400000000000006512000049
:1047A400000000001540000000000000154000005B
:1047B400000000001540000000000000154000004B
:1047C400000000001540000000000000154000003B
:1047D400000000001540000000000000154000002B
:1047E400000000001540000000000000154000001B
:1047F400000000001540000000000000154000000B
:1048040000000000154000000000000015400000FA
:1048140000000000154000000000000015400000EA
:1048240000000000154000000000000015400000DA
:1048340000000000154000000000000015400000CA
:1048440000000000154000000000000015400000BA
:104854009400002007430000000000001540000001
:10486400000000001540000000000000154000009A
:10487400000000001540000000000000154000008A
:10488400000000001540000000000000154000007A
:10489400FF7FFF7FFF7FFF7FFF7FFF7FFF7FFF7F24
:1048A400FF7FFF7FFF7FFF7FFF7FFF7FFF7FFF7F14
:1048B400FF7FFF7FFF7FFF7FFF7FFF7FFF7FFF7F04
:0E48C400FF7FFF7FFF7FFF7FFF7FFF7FFF7F74
:0E48D200FFFFFFFFFFFFFFFFFFFFFFFFFFFFE6
:1048E0000338FDD87047000059100000773F0000E2
:1048F000DF3F000000000000ED3E0000F50F00006B
:104900008D100000FF3F000005400000010F000077
:10491000D10E000000000000000000200000000098
:1049200000000B06020000002C49000000000000FF
:10493000304A00002600020700000020384A00002C
:1049400022000B11C1190000514100005F4100001D
:1049500075410000814100008D410000051C0000F0
:104960009F41000000000000FFFFFFFF000000501B
:1049700000000000FFFF00000003005001000000E5
:1049800061420000211E0000000000000000000045
:104990000000000000300040000000001B0000008C
:1049A0001A0000000000400600000000951F0000F3
:1049B00031210000B91F0000C91F00009342000010
:1049C000C14200008D230000B342000021220000FC
:1049D000A34200000080024008000000C44600001E
:1049E000EC460000FC46000014470000144700009D
:1049F000F5FFFFFF7265656C5F626F6172645F76E1
:104A0000320048656C6C6F20576F726C64212025F2
:104A1000730A00286E696C2900554152545F3000BA
:104A2000434C4F434B007379735F636C6F636B0050
:104A3000464C4153485F30005352414D5F30004770
:104A400050494F5F31004750494F5F300049324372
:104A50005F3000554152545F3100010101010000F7
:104A60000100000000006D61696E0076322E362E66
:104A7000302D7263322D38382D6733643339663701
:104A8000326138386233002A2A2A20426F6F7469F3
:104A90006E67205A6570687972204F53206275697D
:104AA0006C64202573202573202A2A2A0A0000001E
:104AB000A13C0000010000000B4100000C000020A0
:104AC0000C00002001000000010000001C0000207C
:104AD0001C00002000000000010000000000000099
:104AE00000000000000000000000000000C2010003
:104AF000000103000000000000C2010000010300EB
:104B000000000000000000000090D0035C000020C6
:044B10005C00002025
:104B1400204A0000FC480000E84800003002002061
:104B240044020020C8480000194A000000000000A8
:104B3400AC490000F40200203C000020BE48000004
:104B4400534A0000D4490000C0490000FC02002080
:104B540044000020B4480000264A00000000000081
:104B6400000000009C02002000000000AE4800008D
:104B7400464A00006849000044490000B002002091
:104B8400B8020020A64800003F4A00007449000013
:104B940044490000B4020020D40200209E480000D2
:104BA4004D4A00009449000080490000F0020020B2
:084BB4000C00002094480000F1
:04000003000015AD37
:00000001FF
