:020000040800F2
:10000000D840002001970008F72001082D9700082C
:100010002D9700082D9700082D970008000000007C
:100020000000000000000000000000003D950008F6
:100030002D97000800000000F1940008F9920008D4
:10004000D9960008D9960008D9960008D9960008D4
:10005000D9960008D9960008D9960008D9960008C4
:10006000D9960008D9960008D9960008D9960008B4
:10007000D9960008D9960008D9960008D9960008A4
:10008000D9960008D9960008D9960008D996000894
:10009000D9960008D9960008D9960008D996000884
:1000A000D9960008D9960008D9960008D996000874
:1000B000D9960008D9960008D9960008D996000864
:1000C000D9960008D9960008D9960008D996000854
:1000D000D9960008D9960008D9960008D996000844
:1000E000D9960008D9960008D9960008D996000834
:1000F000D9960008D9960008D9960008D996000824
:10010000D9960008D9960008D9960008D996000813
:10011000D9960008D9960008D9960008D996000803
:10012000D9960008D9960008D9960008D9960008F3
:10013000D9960008D9960008D9960008D9960008E3
:10014000D9960008D9960008D9960008D9960008D3
:10015000D9960008D9960008D9960008D9960008C3
:10016000D9960008D9960008D9960008D9960008B3
:10017000D9960008D9960008D9960008D9960008A3
:10018000D9960008D9960008D9960008D996000893
:10019000D9960008D9960008D9960008D996000883
:1001A000D9960008D9960008D9960008D996000873
:1001B000D9960008D9960008D9960008D996000863
:1001C000D9960008D9960008D9960008D996000853
:0801D000D9960008D996000839
:0801D800FFFFFFFFFFFFFFFF27
:1001E00001F0FF01102A2BDB10F0070F08D010F8E8
:1001F000013B013A8B422DD010F0070F42B3F6D1EC
:10020000F0B441EA012141EA014122F007047FF004
:1002100000070023F0E80256083C85EA010586EA5B
:10022000010685FA47F5A3FA87F586FA47F6A5FA97
:1002300087F68EB9EED1F0BC01F0FF0102F00702A3
:1002400032B110F8013B013A83EA010313B1F8D14E
:100250000020704701387047002D06BF354603382F
:10026000073815F0010F07D1013015F4807F02BF68
:10027000013015F4C03F0130F0BC0138704700BFB9
:1002800081F0004102E000BF83F0004330B54FEA47
:1002900041044FEA430594EA050F08BF90EA020FB4
:1002A0001FBF54EA000C55EA020C7FEA645C7FEA47
:1002B000655C00F0E2804FEA5454D4EB5555B8BF6A
:1002C0006D420CDD2C4480EA020281EA030382EADB
:1002D000000083EA010180EA020281EA0303362D6D
:1002E00088BF30BD11F0004F4FEA01314FF4801C40
:1002F0004CEA113102D0404261EB410113F0004F52
:100300004FEA03334CEA133302D0524263EB430308
:1003100094EA050F00F0A780A4F10104D5F1200EA6
:100320000DDB02FA0EFC22FA05F2801841F1000101
:1003300003FA0EF2801843FA05F359410EE0A5F1D5
:1003400020050EF1200E012A03FA0EFC28BF4CF006
:10035000020C43FA05F3C01851EBE37101F00045BC
:1003600007D54FF0000EDCF1000C7EEB00006EEBC9
:100370000101B1F5801F1BD3B1F5001F0CD3490853
:100380005FEA30004FEA3C0C04F101044FEA4452AA
:1003900012F5800F80F09A80BCF1004F08BF5FEA31
:1003A000500C50F1000041EB045141EA050130BD11
:1003B0005FEA4C0C404141EB0101013C28BFB1F523
:1003C000801FE9D291F0000F04BF01460020B1FA6E
:1003D00081F308BF2033A3F10B03B3F120020CDA41
:1003E0000C3208DD02F1140CC2F10C0201FA0CF01F
:1003F00021FA02F10CE002F11402D8BFC2F1200C84
:1004000001FA02F120FA0CFCDCBF41EA0C01904039
:10041000E41AA2BF01EB0451294330BD6FEA040482
:100420001F3C1CDA0C340EDC04F11404C4F120026D
:1004300020FA04F001FA02F340EA030021FA04F37F
:1004400045EA030130BDC4F10C04C4F1200220FAD6
:1004500002F001FA04F340EA0300294630BD21FA14
:1004600004F0294630BD94F0000F83F4801306BFDA
:1004700081F480110134013D4EE77FEA645C18BFCE
:100480007FEA655C29D094EA050F08BF90EA020F65
:1004900005D054EA000C04BF1946104630BD91EA5D
:1004A000030F1EBF0021002030BD5FEA545C05D160
:1004B0004000494128BF41F0004130BD14F580049F
:1004C0003CBF01F5801130BD01F0004545F0FE4113
:1004D00041F470014FF0000030BD7FEA645C1ABF48
:1004E000194610467FEA655C1CBF0B46024650EA7F
:1004F000013406BF52EA033591EA030F41F40021AB
:1005000030BD00BF90F0000F04BF0021704730B530
:100510004FF4806404F132044FF000054FF0000105
:1005200050E700BF90F0000F04BF0021704730B5C6
:100530004FF4806404F1320410F0004548BF40429B
:100540004FF000013EE700BF42004FEAE2014FEAF0
:1005500031014FEA02701FBF12F07F4393F07F4FCB
:1005600081F06051704732F07F4208BF704793F0CE
:100570007F4F04BF41F40021704730B54FF46074E1
:1005800001F0004521F000411CE700BF50EA0102E4
:1005900008BF704730B54FF000050AE050EA01028D
:1005A00008BF704730B511F0004502D5404261EBFD
:1005B00041014FF4806404F132045FEA915C3FF43E
:1005C000D8AE4FF003025FEADC0C18BF03325FEADB
:1005D000DC0C18BF033202EBDC02C2F1200300FA8C
:1005E00003FC20FA02F001FA03FE40EA0E0021FAB1
:1005F00002F11444BDE600BF70B54FF0FF0C4CF49F
:10060000E06C1CEA11541DBF1CEA135594EA0C0F50
:1006100095EA0C0F00F0DEF82C4481EA030621EA8B
:100620004C5123EA4C5350EA013518BF52EA0335C6
:1006300041F4801143F4801338D0A0FB02CE4FF078
:100640000005E1FB02E506F00042E0FB03E54FF0A8
:100650000006E1FB03569CF0000F18BF4EF0010EA0
:10066000A4F1FF04B6F5007F64F5407404D25FEA9C
:100670004E0E6D4146EB060642EAC62141EA55514F
:100680004FEAC52040EA5E504FEACE2EB4F1FD0C91
:1006900088BFBCF5E06F1ED8BEF1004F08BF5FEA0F
:1006A000500E50F1000041EB045170BD06F00046C1
:1006B00046EA010140EA020081EA0301B4EB5C046E
:1006C000C2BFD4EB0C0541EA045170BD41F4801166
:1006D0004FF0000E013C00F3AB8014F1360FDEBF8B
:1006E000002001F0004170BDC4F10004203C35DA67
:1006F0000C341BDC04F11404C4F1200500FA05F3EA
:1007000020FA04F001FA05F240EA020001F000428A
:1007100021F0004110EBD37021FA04F642EB060100
:100720005EEA430E08BF20EAD37070BDC4F10C042A
:10073000C4F1200500FA04F320FA05F001FA04F2EE
:1007400040EA020001F0004110EBD37041F10001DA
:100750005EEA430E08BF20EAD37070BDC4F12005E5
:1007600000FA05F24EEA020E20FA04F301FA05F24D
:1007700043EA020321FA04F001F0004121FA04F2F5
:1007800020EA020000EBD3705EEA430E08BF20EAC5
:10079000D37070BD94F0000F0FD101F000464000FF
:1007A00041EB010111F4801F08BF013CF7D041EA81
:1007B000060195F0000F18BF704703F00046520085
:1007C00043EB030313F4801F08BF013DF7D043EA56
:1007D0000603704794EA0C0F0CEA135518BF95EA0C
:1007E0000C0F0CD050EA410618BF52EA4306D1D193
:1007F00081EA030101F000414FF0000070BD50EAB2
:10080000410606BF1046194652EA430619D094EA3B
:100810000C0F02D150EA013613D195EA0C0F05D125
:1008200052EA03361CBF104619460AD181EA030179
:1008300001F0004141F0FE4141F470014FF0000031
:1008400070BD41F0FE4141F4780170BD70B54FF0CC
:10085000FF0C4CF4E06C1CEA11541DBF1CEA13554C
:1008600094EA0C0F95EA0C0F00F0A7F8A4EB05042E
:1008700081EA030E52EA03354FEA013100F0888025
:100880004FEA03334FF0805545EA131343EA1263EE
:100890004FEA022245EA111545EA10654FEA0026A3
:1008A0000EF000419D4208BF964244F1FD0404F55C
:1008B000407402D25B084FEA3202B61A65EB0305B8
:1008C0005B084FEA32024FF480104FF4002CB6EB75
:1008D000020E75EB030E22BFB61A754640EA0C00F5
:1008E0005B084FEA3202B6EB020E75EB030E22BF35
:1008F000B61A754640EA5C005B084FEA3202B6EB76
:10090000020E75EB030E22BFB61A754640EA9C0034
:100910005B084FEA3202B6EB020E75EB030E22BF04
:10092000B61A754640EADC0055EA060E18D04FEAC2
:10093000051545EA16754FEA06164FEAC30343EA62
:1009400052734FEAC2025FEA1C1CC0D111F4801F2F
:100950000BD141EA00014FF000004FF0004CB6E728
:1009600011F4801F04BF01430020B4F1FD0C88BFC7
:10097000BCF5E06F3FF6AFAEB5EB030C04BFB6EBD2
:10098000020C5FEA500C50F1000041EB045170BDC5
:100990000EF0004E4EEA113114EB5C04C2BFD4EBF2
:1009A0000C0541EA045170BD41F480114FF0000E76
:1009B000013C90E645EA060E8DE60CEA135594EAF2
:1009C0000C0F08BF95EA0C0F3FF43BAF94EA0C0FF5
:1009D0000AD150EA01347FF434AF95EA0C0F7FF46A
:1009E00025AF104619462CE795EA0C0F06D152EABE
:1009F00003353FF4FDAE1046194622E750EA4106A2
:100A000018BF52EA43067FF4C5AE50EA41047FF4B2
:100A10000DAF52EA43057FF4EBAE12E74FF0FF3C17
:100A200006E000BF4FF0010C02E000BF4FF0010CE8
:100A30004DF804CD4FEA410C7FEA6C5C4FEA430C61
:100A400018BF7FEA6C5C1BD001B050EA410C0CBFB0
:100A500052EA430C91EA030F02BF90EA020F002012
:100A6000704710F1000F91EA030F58BF994208BF79
:100A700090422CBFD8176FEAE37040F00100704736
:100A80004FEA410C7FEA6C5C02D150EA013C07D18D
:100A90004FEA430C7FEA6C5CD6D152EA033CD3D0D8
:100AA0005DF8040B704700BF8446104662468C46D2
:100AB0001946634600E000BF01B5FFF7B7FF002805
:100AC00048BF10F1000F01BD4DF808EDFFF7F4FF2E
:100AD0000CBF012000205DF808FB00BF4DF808EDB9
:100AE000FFF7EAFF34BF012000205DF808FB00BFDC
:100AF0004DF808EDFFF7E0FF94BF012000205DF8FE
:100B000008FB00BF4DF808EDFFF7CEFF94BF0120B2
:100B100000205DF808FB00BF4DF808EDFFF7C4FFAB
:100B200034BF012000205DF808FB00BF4FEA4102FE
:100B300012F5001215D211D56FF47873B3EB62522F
:100B400012D94FEAC12343F0004343EA505311F056
:100B5000004F23FA02F018BF404270474FF00000E8
:100B6000704750EA013005D111F0004008BF6FF026
:100B7000004070474FF00000704700BF4FEA41024D
:100B8000B2F1E04324BFB3F5001CDCF1FE5C0DD9EB
:100B900001F0004C4FEAC0024CEA5070B2F1004F35
:100BA00040EB830008BF20F00100704711F0804F38
:100BB00021D113F13872BCBF01F00040704741F4FD
:100BC00080114FEA5252C2F11802C2F1200C10FA01
:100BD0000CF320FA02F018BF40F001004FEAC123E5
:100BE0004FEAD32303FA0CFC40EA0C0023FA02F389
:100BF0004FEA4303CCE77FEA625307D150EA01335F
:100C00001EBF4FF0FE4040F44000704701F000402E
:100C100040F0FE4040F40000704700BF80F000400C
:100C200002E000BF81F0004142001FBF5FEA4103C4
:100C300092EA030F7FEA226C7FEA236C6AD04FEAC4
:100C40001262D2EB1363C1BFD21841404840414009
:100C5000B8BF5B42192B88BF704710F0004F40F4BB
:100C6000000020F07F4018BF404211F0004F41F4D7
:100C7000000121F07F4118BF494292EA030F3FD0A3
:100C8000A2F1010241FA03FC10EB0C00C3F12003B6
:100C900001FA03F100F0004302D5494260EB400045
:100CA000B0F5000F13D3B0F1807F06D340084FEAB0
:100CB000310102F10102FE2A51D2B1F1004F40EBA5
:100CC000C25008BF20F0010040EA0300704749000D
:100CD00040EB0000013A28BFB0F5000FEDD2B0FAAA
:100CE00080FCACF1080CB2EB0C0200FA0CF0AABFCD
:100CF00000EBC25052421843BCBFD040184370476B
:100D000092F0000F81F4000106BF80F40000013270
:100D1000013BB5E74FEA41037FEA226C18BF7FEA47
:100D2000236C21D092EA030F04D092F0000F08BF89
:100D30000846704790EA010F1CBF0020704712F070
:100D40007F4F04D1400028BF40F00040704712F1AF
:100D500000723CBF00F50000704700F0004343F014
:100D6000FE4040F4000070477FEA226216BF08464A
:100D70007FEA23630146420206BF5FEA412390EA0D
:100D8000010F40F4800070474FF0000304E000BF03
:100D900010F0004348BF40425FEA000C08BF7047B4
:100DA00043F0964301464FF000001CE050EA010278
:100DB00008BF70474FF000030AE000BF50EA01028D
:100DC00008BF704711F0004302D5404261EB41017A
:100DD0005FEA010C02BF84460146002043F0B6439F
:100DE00008BFA3F18053A3F50003BCFA8CF2083AC4
:100DF000A3EBC25310DB01FA02FC634400FA02FCCD
:100E0000C2F12002BCF1004F20FA02F243EB0200D3
:100E100008BF20F00100704702F1200201FA02FC35
:100E2000C2F1200250EA4C0021FA02F243EB020028
:100E300008BF20EADC7070474FF0FF0C1CEAD0526C
:100E40001EBF1CEAD15392EA0C0F93EA0C0F6FD02D
:100E50001A4480EA010C400218BF5FEA41211ED00B
:100E60004FF0006343EA501043EA5111A0FB0131F7
:100E70000CF00040B1F5000F3EBF490041EAD371CC
:100E80005B0040EA010062F17F02FD2A1DD8B3F148
:100E9000004F40EBC25008BF20F00100704790F0B7
:100EA000000F0CF0004C08BF49024CEA502040EA09
:100EB00051207F3AC2BFD2F1FF0340EAC2507047CF
:100EC00040F400004FF00003013A5DDC12F1190F0D
:100ED000DCBF00F000407047C2F10002410021FA7F
:100EE00002F1C2F1200200FA02FC5FEA310040F197
:100EF000000053EA4C0308BF20EADC70704792F010
:100F0000000F00F0004C02BF400010F4000F013A47
:100F1000F9D040EA0C0093F0000F01F0004C02BF42
:100F2000490011F4000F013BF9D041EA0C018FE7B1
:100F30000CEAD15392EA0C0F18BF93EA0C0F0AD0B7
:100F400030F0004C18BF31F0004CD8D180EA0100DD
:100F500000F00040704790F0000F17BF90F0004F76
:100F6000084691F0000F91F0004F14D092EA0C0F58
:100F700001D142020FD193EA0C0F03D14B0218BFEB
:100F8000084608D180EA010000F0004040F0FE4031
:100F900040F40000704740F0FE4040F440007047CD
:100FA0004FF0FF0C1CEAD0521EBF1CEAD15392EA4C
:100FB0000C0F93EA0C0F69D0A2EB030280EA010C3C
:100FC00049024FEA402037D04FF0805343EA1111D5
:100FD00043EA10130CF000408B4238BF5B0042F133
:100FE0007D024FF4000C8B4224BF5B1A40EA0C00D8
:100FF000B3EB510F24BFA3EB510340EA5C00B3EB0A
:10100000910F24BFA3EB910340EA9C00B3EBD10FF7
:1010100024BFA3EBD10340EADC001B0118BF5FEA49
:101020001C1CE0D1FD2A3FF650AF8B4240EBC25072
:1010300008BF20F0010070470CF0004C4CEA502033
:101040007F32C2BFD2F1FF0340EAC250704740F482
:1010500000004FF00003013A37E792F0000F00F074
:10106000004C02BF400010F4000F013AF9D040EAF2
:101070000C0093F0000F01F0004C02BF490011F486
:10108000000F013BF9D041EA0C0195E70CEAD1537E
:1010900092EA0C0F08D142027FF47DAF93EA0C0F65
:1010A0007FF470AF084676E793EA0C0F04D14B0249
:1010B0003FF44CAF08466EE730F0004C18BF31F0FB
:1010C000004CCAD130F000427FF45CAF31F00043F5
:1010D0007FF43CAF5FE700BF4FF0FF3C06E000BF8E
:1010E0004FF0010C02E000BF4FF0010C4DF804CDB1
:1010F0004FEA40024FEA41037FEA226C18BF7FEAC1
:10110000236C11D001B052EA530C18BF90EA010FC2
:1011100058BFB2EB030088BFC81738BF6FEAE17051
:1011200018BF40F0010070477FEA226C02D15FEAED
:10113000402C05D17FEA236CE4D15FEA412CE1D059
:101140005DF8040B704700BF844608466146FFE720
:101150000FB5FFF7C9FF002848BF10F1000F0FBD02
:101160004DF808EDFFF7F4FF0CBF012000205DF8FB
:1011700008FB00BF4DF808EDFFF7EAFF34BF012080
:1011800000205DF808FB00BF4DF808EDFFF7E0FF19
:1011900094BF012000205DF808FB00BF4DF808ED6A
:1011A000FFF7D2FF94BF012000205DF808FB00BFCD
:1011B0004DF808EDFFF7C8FF34BF012000205DF8AF
:1011C00008FB00BF4FEA4002B2F1FE4F0FD34FF0D1
:1011D0009E03B3EB12620DD94FEA002343F00043A4
:1011E00010F0004F23FA02F018BF404270474FF052
:1011F0000000704712F1610F01D1420205D110F0D9
:10120000004008BF6FF0004070474FF0000070478B
:1012100042000ED2B2F1FE4F0BD34FF09E03B3EB60
:10122000126209D44FEA002343F0004323FA02F08C
:1012300070474FF00000704712F1610F01D1420278
:1012400002D14FF0FF3070474FF00000704700BFF1
:101250007BB972B90029BEBF00204FF0004106E003
:1012600008BF00281CBF6FF000414FF0FF3000F0B6
:101270002FBAADF1080C6DE904CE002909DB002B73
:101280001ADB00F0B9F8DDF804E0DDE9022304B070
:101290007047404261EB4101002B1BDB00F0ACF8D2
:1012A000DDF804E0DDE9022304B0404261EB4101D6
:1012B000524263EB43037047524263EB430300F037
:1012C0009BF8DDF804E0DDE9022304B0404261EB65
:1012D00041017047524263EB430300F08DF8DDF8A3
:1012E00004E0DDE9022304B0524263EB430370479C
:1012F00053B94AB9002908BF00281CBF4FF0FF317D
:101300004FF0FF3000F0E4B9ADF1080C6DE904CE08
:1013100000F072F8DDF804E0DDE9022304B0704764
:1013200010B500210446FFF725FF20B92046BDE88F
:10133000104000F023B804F1004000F01FF84042D4
:1013400061EB410110BD00BF38B505460C4628468B
:10135000214600220023FFF7C1FB28B92846214679
:10136000BDE8384000F02AB8284604F1004100F0FA
:1013700025F8404261EB410138BD00BFD0B5FFF711
:10138000E3F80C4B002206460F46FFF735F900F054
:10139000A1F90446FFF7B6F8074B0022FFF72CF936
:1013A00002460B4630463946FEF76EFF00F092F9D2
:1013B0002146D0BD0000F03D0000F041D0B50C4BFF
:1013C000002206460F46FFF717F900F083F904469E
:1013D000FFF798F8074B0022FFF70EF902460B467D
:1013E00030463946FEF750FF00F074F92146D0BD73
:1013F0000000F03D0000F0412DE9F047089D0E4649
:1014000004468E46002B4CD18A42944667D9B2FAE4
:1014100082F252B101FA02F3C2F1200120FA01F185
:101420000CFA02FC41EA030E94404FEA1C48210CDE
:10143000BEFBF8F61FFA8CF708FB16E341EA0343FC
:1014400006FB07F199420AD91CEB030306F1FF30B2
:1014500080F01E81994240F21B81023E63445B1A78
:10146000A4B2B3FBF8F008FB103344EA034400FBDA
:1014700007F7A7420AD91CEB040400F1FF3380F000
:101480000981A74240F2068164440238E41B40EA25
:10149000064000211DB1D4400023C5E90043BDE84A
:1014A000F0878B4208D9002D00F0EF800021C5E9BC
:1014B00000060846BDE8F087B3FA83F1002949D158
:1014C000B34202D3824200F2FF80841A66EB030328
:1014D00001209E46002DE2D0C5E9004EDFE702B9AB
:1014E000FFDEB2FA82F2002A40F08E80A1EB0C06F9
:1014F0004FEA1C471FFA8CF30121B6FBF7FE07FBEE
:101500001E60260C46EA004603FB0EF0B04208D9E6
:101510001CEB06060EF1FF3802D2B04200F2D0807A
:10152000C646361AA4B2B6FBF7F007FB106644EACB
:10153000064400FB03F3A34208D91CEB040400F1AA
:10154000FF3602D2A34200F2B8803046E41A40EAE5
:101550000E409FE7C1F1200722FA07F48B40234396
:1015600006FA01FC26FA07F420FA07F646EA0C060A
:101570004FEA134900FA01F8B4FBF9FE300C1FFAE8
:1015800083FC09FB1E4440EA04440EFB0CF0A0421D
:1015900002FA01F20AD91C190EF1FF3A80F08B8091
:1015A000A04240F28880AEF1020E1C44241AB6B26A
:1015B000B4FBF9F009FB104446EA044400FB0CFCC0
:1015C000A44507D91C1900F1FF3670D2A4456ED985
:1015D00002381C4440EA0E40A0FB02E6A4EB0C04D7
:1015E000B442F446B14659D356D0002D6ED0B8EB74
:1015F0000C0364EB0904CB4004FA07F71F43CC400B
:10160000C5E9007400214AE7C2F1200024FA00F184
:101610000CFA02FC06FA02F326FA00F04FEA1C4725
:1016200041EA0306B0FBF7F11FFA8CF307FB110E3A
:10163000300C40EA0E4001FB03FE864504FA02F43A
:1016400008D91CEB000001F1FF3832D2864530D9B1
:1016500002396044A0EB0E00B6B2B0FBF7FE07FB08
:101660001E0046EA00460EFB03F0B04209D91CEB0F
:1016700006060EF1FF3818D2B04216D9AEF1020EAE
:101680006644361A4EEA014137E72946284606E7FE
:101690000646E4E61846F9E6F045A6D2BEEB020C93
:1016A00066EB0303013899469FE7C646E9E73046F3
:1016B00090E74146CEE7D64678E76444023845E7EE
:1016C000AEF1020E66442CE7084603E72946E6E63B
:1016D000704700BF4A0011D212F5001211D20DD589
:1016E0006FF47873B3EB62520ED44FEAC12343F028
:1016F000004343EA505323FA02F070474FF00000D2
:10170000704750EA013002D14FF0FF3070474FF080
:10171000000070474FEA410C7FEA6C5C02D150EA4E
:10172000013C0AD14FEA430C7FEA6C5C02D152EAD9
:10173000033C02D14FF0000070474FF001007047AA
:1017400010F8012B11F8013B012A28BF9A42F7D06B
:10175000D01A7047034613F8012B002AFBD1181A40
:1017600001387047000000002DE9FF47C56C0446B2
:101770002846FEF7E9FE0646206D0F46FEF7E4FE1A
:1017800055A3D3E900238046894630463946FEF703
:101790007DFD02460B4640464946FFF7BDF900284D
:1017A00000F09280D4F81CA0D4F804805046FEF7D4
:1017B000CBFECDE900014046FEF7C6FE46A3D3E9C5
:1017C0000023CDE90201DDE90001FEF75DFD0246DF
:1017D0000B46DDE90201FFF781F9002874D04FF0D4
:1017E0007E512846FFF720FA01464046FFF7E0FC0D
:1017F000002869D02069FEF7A7FE37A3D3E90023AC
:10180000FEF744FD02460B4630463946FFF784F9A1
:10181000002859D0606DFEF797FE31A3D3E900236D
:101820008046894630463946FEF7E6FE324B0022B6
:10183000FFF70CF802460B4640464946FFF74EF9C3
:10184000002841D0A06DFEF77FFE27A3D3E9002337
:1018500006460F46DDE90001FEF7CEFE264B0022CC
:10186000FEF7F4FF02460B4630463946FFF736F9DD
:1018700050B3206AFEF768FE064620680F46FEF762
:1018800063FE1E4B0022FEF7E1FF02460B46304688
:101890003946FFF723F9B8B115A3D3E90023304641
:1018A0003946FFF739F978B194F828307BB1E46A0A
:1018B00050462146FFF77CFC58B121462846FFF7E9
:1018C00059FC003818BF012004B0BDE8F0870120A2
:1018D000FAE70020F8E700BF9A9999999999D93FBA
:1018E0009A9999999999B93FB81E85EB51B89E3F3D
:1018F0007B14AE47E17A843F00003440000024406E
:101900002DE9F04107687D68044625F000400E4649
:10191000FEF71AFE26A3D3E90023FFF7DFF800281D
:1019200033D03B68D6F8608018684146FFF77AF9F3
:1019300041460746F06DFFF775F901463846FFF757
:101940002FFBFEF701FE1CA3D3E90023FEF754FE94
:10195000FFF7ECF81A4AB0F5FA7F116800DD11B311
:10196000431A642093FBF0F3581842F21073984224
:1019700003DD42F21073136002E0002811DB1060F7
:101980001368642293FBF2F3A3830E4905F1004030
:10199000FFF706FB01466069FFF746F96061BDE8A5
:1019A000F0810023E7E742F210739842E1DCE6E7BA
:1019B0009A9999999999C93F000000000088C340FD
:1019C000A0170020000061452DE9F04F944C954E82
:1019D0002068400985B0C002FFF7DAF99249FFF7A5
:1019E000DFFA9249FFF728FA776830600546002150
:1019F0003846FFF7B5FB68B98D492846FFF71CFA52
:101A00008C4905463846FFF717FA01462846FFF786
:101A10000BF90546606875604009C002FFF7B8F928
:101A20008149DFF814A2854EDFF81492DFF814B272
:101A3000FFF7B6FA8449FFF7FFF9844A844B186030
:101A4000A3691088C0EB5310C002FFF7A1F97649D3
:101A5000FFF7A6FA7F49FFF7EFF97F4A6369CAF8F3
:101A6000040005461088C0EB5310C002FFF790F940
:101A70006D49FFF795FA7749FFF7DEF92946804669
:101A8000C9F80C00FFF7CEF83368DBF800201B68BC
:101A9000126803931946074608F100400192FFF7C8
:101AA000CBF90199FFF77CFACBF804000290D9F842
:101AB000080041460068FFF7BFF9029AC9F8100014
:101AC00011460198FFF7B8F9039B77603946CBF8C8
:101AD0000C001846FFF7B0F95649F060B068FFF700
:101AE000ABF9534980463846FFF7A6F90146404610
:101AF000FFF79AF8DAF80030B06029461868574FB7
:101B0000FFF79AF9CAF80C00A0684009C002FFF775
:101B10003FF94549FFF744FA5149FFF78DF951491B
:101B20000646FFF789F9314605464FF08A40FFF730
:101B300079F801462846FFF733FAFEF705FD30A392
:101B4000D3E90023FEF782FE0BF030FF2EA3D3E98A
:101B50000023FEF751FD2EA3D3E90023FEF796FBE9
:101B600002460B4600204049FEF770FE2AA3D3E947
:101B70000023FEF789FBFFF701F8C9F8140020697C
:101B8000B7F8A860400A40F6B833C002B0FBF3F0E3
:101B900080B2801BFEF7C6FC0446B7F8CA00801B63
:101BA0000D46FEF7BFFC02460B4600202F49FEF70C
:101BB0004DFE02460B4620462946FEF71DFD2C4BE6
:101BC0002C4C0022FEF762FBFEF7D8FF2A49A063E7
:101BD0000546FFF7EDFA30B1636B43F400536363DE
:101BE00005B0BDE8F08F25492846FFF7C3FA002865
:101BF000F6D0636B9A04F3D523F40053EFE700BFEC
:101C0000000000000088C340050955613214333FCD
:101C100083DBB5DCE1796B3F666666666612714010
:101C2000F81B0020041E002000007A4C6EDB964159
:101C30009C33223C32777D3FA81000202C1E0020D0
:101C4000401D0020E41D002074D1394246220020AE
:101C5000BC1D00200000A041442200200075FF1F91
:101C600000007A4400401C460000F03F0000544051
:101C700000003E40801D00200000A04200008C4279
:101C80002DE9F8430378012BD0E9015604460BD027
:101C9000032B46D1C068FEF757FC53A3D3E90023BA
:101CA000FEF73AFF00283CD02769A84635460126B2
:101CB000A06B3946FFF768FA10B10EF0AEF960621A
:101CC0000EF0ABF9636AC01A0A2804D848493846AE
:101CD000FFF750FA10B12378032B7FD1002128465B
:101CE0000EF0BAF8D5F8009001464846FFF760FAC2
:101CF000F0B1A368AB420CBF0323052363804FF010
:101D0000FF35A76103F036FB15FB06F606EB46062A
:101D1000304480B203F034FBB5FA85F04009BDE8E9
:101D2000F8832769B04607F100474FF0FF36BFE759
:101D3000286A0021FFF71EFA28B1A368AB420CBF46
:101D400002230423DAE7D8F824000021FFF730FA51
:101D500028B1636843450CBF04230223CEE7E16842
:101D6000A06A21F00041FFF705FA08B10223C5E798
:101D7000002140460EF051F80146D8F80000FFF768
:101D8000F9F920B1A06B3946FFF7F4F9F0B9194918
:101D90006069FFF70DFAF8B9A06B3946FFF708FA4A
:101DA00040B1002128460EF038F801464846FFF7BA
:101DB000E1F9A8B90123A06963803946FFF7F8F972
:101DC00010B1E3695B42E361E5699AE76368434503
:101DD0000CBF0523032391E706238FE7002590E737
:101DE00001258EE7AFF300809A9999999999B93FA7
:101DF000000020C10000A04243782DE9F0410446D4
:101E0000002B70D04368C16A1868FFF7D1F9002829
:101E100069D1A368216B1D682846FFF7C9F900281E
:101E200061D1616B2846FFF7A5F900285BD1344BDF
:101E30005B6B9B0757D10EF0F0F8236AE26B1344FB
:101E4000984250DBD4E901450021286AFFF7B0F938
:101E500068B3002128460DF0FFFFD5F80080014649
:101E60004046FFF787F910B3606A0021FFF782F957
:101E7000E8B1002120460DF0D0FF2668014630462B
:101E8000FFF796F998B13046FEF75EFB1AA3D3E947
:101E90000023FEF7B1FB064640460F46FEF754FB13
:101EA00002460B4630463946FEF736FEF0B9206A48
:101EB0000021FFF77DF9B0B1002120460DF0CCFFE5
:101EC00001462068FFF756F968B1686A0021FFF7FC
:101ED00051F940B1002128460DF09FFF01462868C6
:101EE000FFF766F920B90020BDE8F0810120FBE78B
:101EF0000220F9E7AFF30080333333333333EB3F62
:101F0000801D0020000000002DE9F04F87B022481E
:101F10000AF0E0FA0546002835D0836804AA5B6819
:101F200002219847074670BBDDE9044A1B4BDFF8E6
:101F30007080A4FB03B603FB0A66584614A3D3E9DA
:101F400000233146FFF7D4F94FF0FF39D94578EB3C
:101F50000603039017D3134BA4FB036403FB0A4A45
:101F600030460BA3D3E900235146FFF7C1F9B14531
:101F700078EB0A02034606D3AA6800971468039A0E
:101F800002212846A04707B0BDE8F08FAFF30080DC
:101F900000CA9A3B00000000AB540108400D03004A
:101FA000FFC99A3BA08601002DE9F04FB1F5801FD3
:101FB00087B002460B460D4680F2828021F0004435
:101FC000044300F021810029C0F26181D64B002238
:101FD000FEF712FB0D460B46D4498D4202466FF0C8
:101FE000350072DC2C15C5F3130505F51521A4F297
:101FF000FF3401F66471044401F4801104EB1154C0
:1020000081F07F5181F4401141EA050310461946E1
:102010000022C74BFEF738F9AB1CC3F31303022BA6
:1020200082468B4658DC00220023FEF74DFD002837
:1020300040F0F380A8A3D3E9002350465946FEF7A9
:10204000DBFA02460B460020BA49FEF71DF952465C
:1020500006460F465B4650465946FEF7CDFA024605
:102060000B4630463946FEF7C7FA06460F46002CA7
:1020700000F004812046FEF755FA99A3D3E9002326
:1020800080468946FEF7B8FA97A3D3E900230446B1
:102090000D4640464946FEF7AFFA02460B4630462B
:1020A0003946FEF7F1F852465B46FEF7EDF8024678
:1020B0000B4620462946FEF7E7F807B0BDE8F08F4B
:1020C0009A498D424FF000008CDD10461946FEF70C
:1020D000DDF807B0BDE8F08FA5F5C223A3F27A437F
:1020E000019300224FF08043FEF7D0F802460B46E2
:1020F00050465946FEF7AAFB064620460F46FEF715
:1021000011FA3246CDE904013B4630463946CDE965
:102110000267FEF771FA02460B4680468946FEF7D3
:102120006BFA73A3D3E9002306460F46FEF764FA61
:1021300071A3D3E90023FEF7A9F832463B46FEF728
:102140005BFA6FA3D3E90023FEF7A0F832463B46C3
:10215000FEF752FA6CA3D3E90023FEF797F8424644
:102160004B46FEF749FA6AA3D3E900238046894625
:1021700030463946FEF740FA67A3D3E90023FEF75D
:1021800085F832463B46FEF737FA65A3D3E90023CC
:10219000FEF77CF832463B46FEF72EFA0B46024627
:1021A00049464046FEF772F8C5F5D725019B5135E3
:1021B0001D43002D06460F464BDD5E4B0022504668
:1021C0005946FEF719FA52465B46FEF715FA804665
:1021D00089463046394642464B46FEF757F8DDE918
:1021E0000223FEF709FA06460F46002C56D1024696
:1021F0000B4640464946FEF747F802460B46504616
:102200005946FEF741F864E7002200234A490020BE
:10221000FEF71CFB07B0BDE8F08F002C57D020461E
:10222000FEF780F92EA3D3E9002306460F46FEF7FA
:10223000E3F92DA3D3E9002304460D463046394681
:10224000FEF7DAF902460B4620462946FEF71EF84D
:102250003FE702460B4650465946FEF715F8DDE9C2
:102260000223FEF7C9F906460F463CB1DDE90489B1
:102270001BA3D3E900234046494603E732463B46C9
:1022800050465946FEF700F807B0BDE8F08FFDF75D
:10229000FBFF00220023FEF7D9FA1AE710A3D3E9C7
:1022A0000023DDE90401FEF7A7F90FA3D3E900231A
:1022B00004460D46DDE90401FEF79EF932463B4631
:1022C000FDF7E4FF02460B4640464946E9E600209A
:1022D0000021FEE6AFF30080555555555555D53FC5
:1022E0000000E0FE422EE63F763C7935EF39EA3DCC
:1022F00044523EDF12F1C23FDE03CB966446C73F35
:10230000599322942449D23F935555555555E53F4D
:102310009FC678D0099AC33FAF788E1DC571CC3F58
:1023200004FA97999999D93F00005043FFFFEF7F36
:102330000000F03F0000E03F000050C3000000003C
:102340002DE9F04F9FB09B4600231A939E4B1592A8
:102350001F68824638460E46FFF7FCF94FF000082A
:1023600004464FF000091996199B1A782B2A4CD075
:102370003AD80D2A33D8082A33D8002A3DD0002372
:102380000A93199D2B78302B40F0AA806B7803F0CC
:10239000DF03582B66D10A9B01931AAB00938B4A3B
:1023A000CDF808B01BAB19A950460CF09DFA10F0FF
:1023B0000706044605D0062E29D1013500231995BC
:1023C0000A93159B002B40F08A850A9BD3B14246A5
:1023D00009F10043104619461FB0BDE8F08F202ACE
:1023E000CDD101331993BFE72D2AC8D101220A921A
:1023F0005A1C19925B78002BC3D1159B1996002BA0
:1024000040F06B8542464B46E4E70022EFE71A9A1C
:102410003AB135211CA811F00BFC1A9950460CF06A
:10242000E3FC013E042E06D8DFE806F00A03141789
:102430000A00DDE91C892107C3D549F00049C0E73E
:10244000DDE91C831B9A23F4801302F2334243EA32
:102450000259F0E7DFF87891EDE76FF000494FF0AF
:10246000FF38E8E7199B5A1C19925B78302BF9D09A
:10247000002BA6D001230793199B08930023CDE9D5
:1024800005339B460A2219980578A5F13003D9B285
:10249000092927D92246394611F0E9F8002833D016
:1024A00000202A465C4604900346652A01D0452A4E
:1024B00014D11CB9079A02439FD00024199E721CA4
:1024C000199272782B2A79D02D2A00F08380002768
:1024D000A2F13001092940F28380199600259FE07E
:1024E0000023C8E7BBF1080FD5BF0699059902FB89
:1024F000013302FB013300F10100D4BF06930593C1
:102500000BF1010B1990BEE7199B1A1919921A5D6C
:10251000BBF1000F36D004905C46A2F13003092BCA
:1025200012D90123C1E7199B5A1C19925A7801301C
:10253000302AF8D0A2F13103082B00F2D584199B80
:102540000490002008930446303A00F1010313D0B0
:10255000049919440491234605190A21AB4213D169
:102560002318082B04F1010404441BDC06990A23F8
:1025700003FB012306930023199A511C19915278E9
:102580001846CAE75846D3E7082B04DC069F4F439A
:1025900006970133E2E75F1C102FDEBF059F4F4314
:1025A0000597F6E7102CDFBF05990A2303FB0123EB
:1025B0000593E0E70023049301237BE70027B21C87
:1025C0001992B27884E700BF544C0108C84B010847
:1025D0000000F07F0127F2E7199A511C19915278F7
:1025E000302AF9D0A2F1310108293FF677AFA2F1E4
:1025F000300C199A09924FF00A0E199A511C199130
:102600005278A2F13005092D35D9099D491B0829B9
:1026100044F61F6502DC6545A8BF654607B16D42FB
:10262000002C4CD1079901437FF4CBAE002B7FF4F3
:10263000E4AE692A26D023DC492A23D04E2A7FF42F
:10264000DCAE9D4919A811F09BF900283FF4D5AEE6
:10265000199B1B78282B2CD198491CAA19A811F07A
:10266000A3F9052825D11D9BDDF8708043F0FF49B3
:1026700049F4E009A5E60EFB0C2CACF1300CBCE7EC
:102680006E2ADCE78E4919A811F07AF900283FF488
:10269000B4AE199B8B49013B19A8199311F070F93D
:1026A00010B9199B01331993DFF81C924FF0000801
:1026B00087E686480BF0B4F98046894681E6049B9C
:1026C0000698EB1ABBF1000F08BFA346102C079326
:1026D0002646A8BF1026FDF715FF092C804689461F
:1026E00013DD7B4B03EBC60353E91223FDF784FF95
:1026F000804605988946FDF705FF02460B46404691
:102700004946FDF7C3FD804689460F2C36DC079B02
:10271000002B3FF456AE22DD162B09DC6C4901EB91
:10272000C301D1E9000142464B46FDF765FFC3E70F
:10273000079AC4F12503934220DB654DC4F10F04D1
:1027400005EBC40142464B46D1E90001FDF754FFB9
:10275000079B1C1B05EBC405D5E90023E5E7079B98
:1027600016330BDB049B5D1B594B03EBC505D5E909
:10277000002340464946FEF769F89DE7079BA61BE4
:102780001E44002E74DD16F00F030AD0504901EBF1
:10279000C30142464B46D1E90001FDF72DFF8046BB
:1027A000894636F00F0652D0B6F59A7F27DD4FF0F6
:1027B000000BCDF810B0CDF820B0CDF818B0222322
:1027C000DFF80491CAF800304FF00008089B002B96
:1027D0003FF4F7AD1A9950460CF006FB06995046A7
:1027E0000CF002FB049950460CF0FEFA0899504692
:1027F0000CF0FAFA594650460CF0F6FAE1E5354B82
:10280000059300233611404649461F46012E21DC20
:102810000BB1804689462F4BA9F1547903EBC707CA
:1028200042464B46D7E90001FDF7E6FE264B0A4635
:102830000B4029498B428046B9D8A1F580118B42C3
:1028400086BFDFF898904FF0FF3802F154790023EB
:1028500005937FE0F20705D5059BD3E90023FDF73B
:10286000CBFE0123059A0832013776100592CDE799
:10287000EDD0764216F00F020AD0154B03EBC203DF
:1028800040464946D3E90023FDF7E0FF80468946EC
:102890003611DCD01F2E23DD4FF0000BCDF810B029
:1028A000CDF820B0CDF818B022234FF000084FF03B
:1028B0000009CAF8003089E781550108DC4B01089E
:1028C000786A0108A86A01080000F07F3354010803
:1028D000C8450108A04501080000A07CFFFFEF7F6C
:1028E00016F0100318BF6A23B14F059340464946BE
:1028F0000023F20704D5D7E90023FDF77DFE01236D
:10290000761007F10807F4D10BB180468946059B84
:10291000C3B1C9F30A52C2F16B03002B494611DD62
:102920001F2B40F32481342BDEBFC2F14B024FF04A
:10293000FF3303FA02F24FF00008CCBF4FF05C798E
:1029400002EA01090022002340464946FEF7BCF88E
:102950000028A1D1069B0093089923465A46504669
:102960000CF0AAFA089000283FF421AF049B5D1BED
:10297000079B002BB4BF2B4600230E93079B4FF001
:10298000000B23EAE3731493CDF810B0089B504674
:1029900059680CF0E9F9069000283FF410AF089B45
:1029A0001A69023203F10C0192000C3010F00DFD97
:1029B0001CAB01931BAB009342464B465046CDE9FE
:1029C0000C890CF04DFD1A9000283FF4F8AE01215F
:1029D00050460CF0BBFA0490034600283FF4EFAEDB
:1029E0001B9D1C9A002DABBF0E9B149B149C0E9E2E
:1029F000ACBFEE185C1B059BED1A15446D4B013DF9
:102A00009D42C2F1360280F2C4805B1B1F2BA2EBF9
:102A100003024FF0010700F3B18007FA03F30F93AD
:102A20000025B718059BBE4214441C443346A8BF7A
:102A30003B46A342A8BF2346002BC2BFFF1AE41A9D
:102A4000F61A0E9B002B17DD04991A4650460CF01F
:102A50003BFB049000283FF4B2AE01461A9A504660
:102A60000CF08AFA099000283FF4A9AE1A99504652
:102A70000CF0BAF9099B1A93002F00F38E80079B84
:102A8000002B08DD149A069950460CF01DFB0690A9
:102A900000283FF494AE002C08DD069922465046EB
:102AA0000CF06CFB069000283FF489AE002E08DD88
:102AB0000499324650460CF061FB049000283FF424
:102AC0007EAE069A1A9950460CF0C8FB8346002841
:102AD0003FF475AE0024C3680499C4600B9311F0F1
:102AE0005EF8A0426CDA0B9B53EA080340F0928038
:102AF000C9F31303002B40F08D8029F000431B0D18
:102B00001B05B3F1D66F40F28580DBF814301BB99A
:102B1000DBF81030012B7DDD5946012250460CF0C8
:102B20002DFB0499834611F03AF8002872DD0599CF
:102B3000214A4B46002900F08D8002EA0901B1F1DB
:102B4000D66F00F38780B1F15C7F7FF7ADAE1B4B92
:102B5000404649460022FDF74FFD0B46034308BFA0
:102B600022238046894608BFCAF8003032E64FF07B
:102B7000FF3202FA03F303EA0808E3E6C5F17F45F2
:102B800005F57F0505F57B45E23507FA05F50F9755
:102B900047E7012300250F9343E71A993A46504629
:102BA0000CF0ECFA1A9000287FF469AF07E600BF3A
:102BB0007845010802FCFFFF0000F07F000050395B
:102BC000CDF8249065D10B9AC9F313035AB39A4AEE
:102BD00093422BD1059B414603B3984B4A46134081
:102BE000B3F1D46F4FF0FF321BD81B0DC3F16B0351
:102BF00002FA03F3994219D1914B099A9A4202D1F0
:102C000001313FF4DCAD8D4B099A1A4002F5801971
:102C10004FF00008059B002B99D1DBE54FF0FF3307
:102C2000E8E71346E6E753EA080380D0E5B1099BDD
:102C30001D42EFD00B9B059A40464946C3B110F0A8
:102C400049FD02460B46DDE90C01FDF71FFB8046FE
:102C50008946DFE71340A3F580136FEA13596FEA43
:102C600009594FF0FF38D5E70F9B13EA080FE0E74B
:102C700010F030FD02460B46DDE90C01FDF704FBC8
:102C80000022002380468946FDF71EFF0028C1D0A0
:102C90000AE60499584610F09DFF00224FF0804349
:102CA00006460F46FDF724FF002870D00B9B002B33
:102CB00042D0644F0026634D099B23F000431B0D57
:102CC0001B050F930F9A604B9A4240F0C580099BF9
:102CD000A3F15479404649460CF048FB02460B46A6
:102CE00030463946FDF788FC42464B46FDF7CEFAA2
:102CF0000B465249554A1940914280465DD90D9A7A
:102D00004F4B9A4203D10C9B01333FF458ADDFF88F
:102D100030914FF0FF381A9950460CF065F806993B
:102D200050460CF061F8049950460CF05DF8594695
:102D300050460CF059F829E6B8F1000F19D1099B5B
:102D4000C3F31303E3B93F4B002230463946FDF786
:102D5000C5FEC8B93E4B002230463946FDF74CFC53
:102D600004460D4605F1004316941793DDE91667F6
:102D7000A2E7B8F1010F03D1099B002B3FF494ADFA
:102D8000344F0026002496E70B9C314DEAE7304B88
:102D9000002230463946FDF72FFC0B9B04460D46BA
:102DA00033B901F1004310901193DDE9106783E717
:102DB00002460B46CDE91023F7E703F15479059B52
:102DC000002BA8D129F000430F9A1B0D1B059A4236
:102DD000A1D120462946FEF7B7FAFDF7DFFB0246F0
:102DE0000B4620462946FDF74FFA0B9AC9F3130309
:102DF00043EA0803134304460D4668D00AA3D3E907
:102E00000023FDF76BFE00287FF4E4AC08A3D3E9B0
:102E1000002320462946FDF77FFE00283FF47BAFC4
:102E2000D8E400BFAFF300809535A094FFFFDF3FEB
:102E300035E5AF350000E03FFFFF0F000000F07FF9
:102E4000FFFFEF7F0000F03F0000E07FFFFF9F7C6F
:102E50000000E03F0000F0BF059B13B30F9BB3F1F0
:102E6000D46F1ED826A3D3E9002320462946FDF7B8
:102E70003FFE90B129462046FEF72CFC012838BFC2
:102E80000120FDF73FFB0B9B04460D46D3B901F132
:102E9000004312901393DDE912670F9A07F1D6638E
:102EA0009F1ADDE90C010CF061FA02460B46304630
:102EB0003946FDF7A1FBDDE90C23FDF7E7F9804674
:102EC00089467CE702460B46CDE91223E3E70EA3D1
:102ED000D3E90023FDF702FE9FE700230A93159A2A
:102EE000199B1360FFF771BA652A3FF463AB452A5B
:102EF0003FF460AB0123FFF795BB00BFAFF3008049
:102F00000000C0FFFFFFDF419535A094FFFFCF3FDA
:102F10002DE9F04F446A99B016461F46CDE9046783
:102F2000DDF89480054674B910200AF07FFD024652
:102F3000686220B9A84BEA21A8480CF0D5FDC0E989
:102F400001440460C4606B6A196851B15A684A60F0
:102F5000012393408B6028460BF046FF6B6A0022EA
:102F60001A603B1EB9BF23F0004305930023C8F845
:102F70000030DDF814909A4BBCBF0122C8F8002045
:102F800033EA090319D1249A42F20F731360C9F38B
:102F90001303334300F08085269B53B9914B22E005
:102FA000914B03930833269A1360039819B0BDE838
:102FB000F08F8C4B03930333F5E7DDE90434CDE95F
:102FC0000C34DDE90C0100220023FDF77DFD804675
:102FD00058B1249A01231360269B002B00F05985D9
:102FE00082481860431E0393DFE716AB019317ABCB
:102FF00000932846DDE90C230CF032FAC9F30A5499
:103000008346002C7ED00D9BCDF84C80C3F3130378
:10301000DDE90C0143F07F5141F44011A4F2FF348B
:10302000734B0022FDF730F965A3D3E90023FDF7C8
:10303000E3FA65A3D3E90023FDF728F90646204605
:103040000F46FDF76FFA62A3D3E90023FDF7D4FA28
:1030500002460B4630463946FDF718F906460F463C
:10306000FDF764FD00228246002330463946FDF715
:1030700035FD48B15046FDF755FA32463B46FDF75F
:1030800023FD08B90AF1FF3ABAF1160F57D8594B88
:1030900003EBCA03D3E90023DDE90C01FDF71EFDB4
:1030A00000284ED00AF1FF3A00230F93169B1C1BF9
:1030B000631E099345BFC4F1010306930023002357
:1030C0004CBF09930693BAF1000F3CDB099BCDF886
:1030D00038A05344099300230A93229B092B00F242
:1030E0008D80052BC4BF043B2293229BA3F10203D6
:1030F000CCBF00240124032B00F28C80DFE803F016
:103100002D4F4D5BDDE916431C4404F23243202B66
:10311000C3BFC3F1400304F2124009FA03F3C3F141
:103120002003C6BF26FA00F0184306FA03F0FDF7A5
:10313000E9F90123A1F1F871013C139370E7012330
:10314000B3E70F90B2E7069BA3EB0A030693CAF11D
:1031500000030A9300230E93BFE700230B93239BE6
:10316000002B5ADC4FF00109CDF820904B46CDF8EA
:103170008C90686A00224260042202F114069E428A
:10318000416850D928460BF0EFFD039000284ED13E
:10319000194B02464FF4D571CEE60123DEE700233A
:1031A0000B93239B0AEB030909F10103012B0893FD
:1031B000B8BF0123DDE70123F2E700BFAFF30080D2
:1031C00061436F63A787D23FB3C8608B288AC63F2D
:1031D000FB799F501344D33FB26A0108C96A0108C2
:1031E0000000F07FAE6A0108A56A01084169010884
:1031F0000000F83FC84501081E6B010801240023A8
:1032000022930B944FF0FF390022CDF82090122327
:103210002392AEE701230B93F4E7DDF88C90CDF811
:1032200020904B46A5E7013141605200A5E76B6A4B
:10323000039A1A60089B0E2B00F2A880002C00F065
:10324000A580BAF1000F34DD9A4A0AF00F0302EBB1
:10325000C303D3E900341AF4807FCDE910344FEA78
:103260002A1416D0944BDDE90C01D3E90823FDF7AD
:10327000EDFACDE9040104F00F0403278E4E54B992
:10328000DDE91023DDE90401FDF7E0FACDE90401F1
:1032900029E00227F2E7E10708D5DDE91001D6E9C8
:1032A0000023FDF7A9F9CDE91001013764100836B4
:1032B000E5E700F0A580CAF100047E4B7E4E04F0E5
:1032C0000F0203EBC203D3E90023DDE90C01FDF794
:1032D00093F9CDE90401241100230227002C40F0CA
:1032E0008480002BD2D10F9B002B00F08B80DDE976
:1032F0000434CDE91034DDE91001704B0022FDF7F4
:10330000EDFB00287ED0089B002B7BD0B9F1000F8D
:1033100038DDDDE910016A4B0022FDF76DF9CDE9DA
:1033200004010AF1FF3801374C463846FDF7FAF838
:10333000DDE90423FDF760F9624B0022FCF7A6FFEC
:10334000A1F15076CDE910011196002C5DD1DDE997
:1033500004015D4B0022FCF797FF02460B46CDE9C6
:103360000423109A3346FDF7D7FB002840F09C82D7
:10337000DDE90401109A06F10043FDF7AFFB0028D8
:1033800040F09082DDE90C34CDE90434179B002B2A
:10339000C0F25281BAF10E0F00F34E81454B03EBA0
:1033A000CA03D3E90034CDE90634239B002B80F215
:1033B000DB80089B002B00F3D78040F07282424BE9
:1033C0000022DDE90601FDF717F9DDE90423FDF729
:1033D00099FB089C2646002840F04882039F312331
:1033E00007F8013B0AF1010A44E2E20705D5D6E9F4
:1033F0000023FDF701F901370123641008366DE75A
:10340000022770E7089CD0468FE70399294B214497
:1034100012910B9903EBC403DDE9106753E9022312
:10342000002955D029490020FDF710FA3B463246C5
:10343000FCF72AFFCDE91001039FDDE90401FDF748
:1034400075FB0446FDF76EF802460B46DDE9040104
:10345000FCF71AFF303402460B46CDE9042307F887
:10346000014BDDE91023FDF739FB002874D1DDE9BC
:10347000042312490020FCF707FFDDE91023FDF7C4
:103480002DFB002840F0B780129B9F423FF47AAF9B
:10349000DDE910010A4B0022FDF7AEF8084BCDE93B
:1034A00010010022DDE90401FDF7A6F8CDE90401D1
:1034B000C3E700BFC8450108A04501080000F03F70
:1034C0000000244000001C40000014400000E03FC9
:1034D00030463946FDF790F8CDE91001129B039C68
:1034E0001493DDE90401FDF721FB1590FDF71AF8AF
:1034F00002460B46DDE90401FCF7C6FE159B30339E
:1035000004F8013B129B9C4206460F464FF0000216
:1035100024D1A44BDDE91001FCF7B8FE02460B46AE
:1035200030463946FDF7F8FA002863D1DDE910236B
:103530009C490020FCF7A8FE02460B46304639465F
:10354000FDF7CCFA00283FF41DAF149F7B1E1493A7
:1035500017F8013C302BF8D0C2463BE0924BFDF708
:103560004BF8CDE90401BCE7DDE90489039FDDE9FF
:10357000062340464946FDF769F9FDF7D7FA0446A8
:10358000FCF7D0FFDDE90623FDF736F804F130063D
:1035900002460B4640464946FCF776FE07F8016BAB
:1035A000039EDDF820C0BE1BB44502460B4636D153
:1035B000FCF76CFEDDE9062380468946FDF7ACFA90
:1035C00058BBDDE9062340464946FDF77DFA08B1C0
:1035D000E10722D4284659460BF006FC00233B7035
:1035E000249B0AF101001860269B002B3FF4DDAC00
:1035F0001F60DAE427463B461F4613F8012D392A9F
:1036000007D1039A9A42F7D10399302208F10108B1
:103610000A701A7801321A709EE7D046EBE7624BC7
:103620000022FCF7E9FF0022002380468946FDF7CF
:103630004BFA00289BD0CDE70B9A002A00F0D080EF
:10364000229A012A00F3B280139A002A00F0A68081
:1036500003F233430A9C069F069A1A440692099A7B
:1036600001211A44284609920BF070FC0646002FEF
:103670000CDD099B002B09DDBB42069AA8BF3B4627
:10368000D21A0692099AFF1AD31A09930A9BF3B128
:103690000B9B002B00F0A880002C10DD3146224649
:1036A00028460BF011FD5A460146064628460BF007
:1036B00063FC5946804628460BF096FBC3460A9B9E
:1036C0001A1B04D0594628460BF0FEFC8346012104
:1036D00028460BF03BFC0E9B002B044640F38680F3
:1036E0001A46014628460BF0EFFC229B012B0446AC
:1036F0007FDD4FF00008236904EB8303186910F0A5
:1037000001FAC0F12000099B184410F01F0000F0DE
:103710009280C0F12003042B40F38A80C0F11C008A
:10372000069B03440693099B034407440993069BA5
:10373000002B05DD59461A4628460BF01FFD83462F
:10374000099B002B05DD21461A4628460BF016FD85
:1037500004460F9B002B70D02146584610F01FFAEC
:1037600000286ADA002359460A2228460BF05EFB3D
:103770000B9B0AF1FF3A8346002B00F094813146FF
:1037800000230A2228460BF051FBB9F1000F064630
:1037900000F39380229B022B57DC8EE0169BC3F133
:1037A000360357E70000E03F00002440089B5C1E02
:1037B0000A9BA342BFBF0A9B0A94E21A0E9BB6BFA4
:1037C0009B181C1B0E93089BB8BF0024002BB9BF8D
:1037D000069B089A069F089BBCBF9F1A00233BE7E5
:1037E0000A9C069F0B9E42E70A9A6BE7229B012BDD
:1037F00019DC049BBBB9059BC3F313039BB9059B61
:1038000023F000431B0D1B0583B1069B0133069378
:10381000099B013309934FF001080E9B002B7FF4A5
:103820006AAF01206FE74FF00008F6E79846F4E72B
:103830003FF47DAF18461C3072E7089B002B36DC46
:10384000229B022B33DDDDF82090B9F1000F0DD162
:1038500021464B46052228460BF0E8FA014604466D
:10386000584610F09CF900283FF7B8AD239B039F02
:103870006FEA030A4FF00008214628460BF0B4FA1D
:10388000002E3FF4A7AEB8F1000F05D0B04503D02D
:10389000414628460BF0A8FA314628460BF0A4FA18
:1038A00098E600242646E1E7C246264696E50B9BAD
:1038B000DDF82090002B00F0FD80002F05DD314663
:1038C0003A4628460BF05AFC0646B8F1000F5CD089
:1038D000716828460BF048FA074628B9804B024623
:1038E00040F2EA21FFF728BB32690232920006F16A
:1038F0000C010C300FF069FD0122394628460BF00F
:103900003DFC039B01330893039B4B440A93049BA8
:1039100003F00103B04609930646089B2146013B8C
:10392000584604930FF0F7FE0346303306904146A5
:1039300058460B9310F033F932468146214628460B
:103940000BF08CFCC2680B9B074602BB0146584635
:1039500010F025F90B9B024639462846CDE90B327B
:103960000BF042FA229B0C9A089F43EA0201099B42
:103970000B430B9B0DD1392B29D0B9F1000F01DD81
:10398000069B3133049A137076E73046B9E701227B
:10399000E2E7B9F1000F06DB229941EA090909992A
:1039A00059EA010120D1002AECDD594601222846BE
:1039B00008930BF0E3FB2146834610F0F0F8002853
:1039C000089B02DCDED1DA07DCD5392BD8D1049A8A
:1039D000392313703B461F46013B17F8012C392A47
:1039E00050D001321A7047E7002A03DD392BEED0A0
:1039F0000133C7E7089A0A9902F8013C8A422AD0A3
:103A0000594600230A2228460BF010FAB045834697
:103A10004FF000034FF00A024146284607D10BF051
:103A200005FA80460646089B0133089375E70BF0BC
:103A3000FDF93146804600230A2228460BF0F6F9AC
:103A40000646F0E7B9F1000F039ACCBF4F460127B5
:103A500017444FF0000859460122284608930BF0FE
:103A60008DFB2146834610F09AF80028B2DC02D183
:103A7000089BDB07AED43B461F4613F8012D302AC6
:103A8000FAD0F9E6039A9A42A5D10AF1010A312344
:103A900079E7144BFFF7A7BA269B002B7FF480AA87
:103AA000114BFFF7A0BAB9F1000F03DC229B022BE8
:103AB0003FF7CBAE039F214658460FF02CFE00F196
:103AC000300307F8013B039ABA1A9145BADD59460B
:103AD00000230A2228460BF0A9F98346EBE700BF32
:103AE0001E6B010840690108A56A0108F8B5044683
:103AF0001E4623606361A3613C23A3604FF4E1533E
:103B000010466362794A7A4B62660F46A366E266A4
:103B1000236706296AD8DFE811F0E30007000700F1
:103B200007006A00A700A700FDF732F971490546B2
:103B3000FDF782F97049E0602846FDF77DF96F498D
:103B4000E0612846FDF778F96D4960602846FDF789
:103B500073F96C49E0642846FDF76EF96A492065FF
:103B60002846FDF769F96949FDF71AFA6849606561
:103B70002846FDF761F9012F14BF664961492061AC
:103B80002846FDF759F96449E0652846FDF754F9E0
:103B9000624920663046FDF74FF90123012F84F872
:103BA00028304FF4E16314BF54495D492062236318
:103BB0002846FDF741F9012F4FF0000314BF4D498E
:103BC0005849E06284F834302846FDF735F94FF45F
:103BD0006163A063E36354493046FDF72DF90A237E
:103BE0003C22C4E91123514B20646367F8BDFDF703
:103BF000CFF84F490546FDF71FF94E49E0602846CA
:103C0000FDF71AF94C49E0612846FDF715F94B49D3
:103C100060602846FDF710F94949E06407462846E8
:103C2000FDF70AF9474920653846FDF705F9374998
:103C3000FDF7B6F9294660652846FCF7F5FF4249CD
:103C400020612846FDF7F8F82766E0653F493046D1
:103C5000FDF7A6F9002384F8283084F834300023D7
:103C600020626367A366C1E7FDF792F8062F14BFD1
:103C7000374938490546FDF7DFF83249E061074624
:103C80002846FDF7D9F83946FCF7CEFF3249E06007
:103C90002846FDF7D1F8314960602846FDF7CCF899
:103CA0002349E06407462846FDF7C6F82549206504
:103CB0003846FDF7C1F81549FDF772F919496065F5
:103CC0002846FDF7B9F84FF0814120612846FDF7FD
:103CD000B3F81A49E0652846FDF7AEF82066B5E767
:103CE000BDE8F8401E4845210DF025BD00004842C2
:103CF000000020C1CDCC1C409A99194033331340A9
:103D00009A99F93F66660640A099193E0000A041C5
:103D1000CDCCCC3F9A9909403333F33F0AD7233DAA
:103D200066661640000020402549123EA69B44BB13
:103D30006666664033336340666656400000404026
:103D40009A994940CDCC4C3D9A9959400000204168
:103D50006666864033338B409A99794033335340BB
:103D6000724C01082DE9F0410368CD691E680C46CC
:103D7000096937680846FCF757FF01463846FDF7E2
:103D800017FAB8B1E1680846FCF74EFF014638461D
:103D9000FDF7F0F970B10223338129462846FCF77C
:103DA00043FFFCF7D1FB024606480B46BDE8F04155
:103DB0000AF038BA2846FCF7C7FB02460B46024811
:103DC000F4E700BFAD4C0108D84C01082DE9F84FCD
:103DD0004F4B90F845205B6A04460D4603F0010303
:103DE000002A50D113B3012380F84530438B076973
:103DF00046690133438300213846FDF7B1F968B9BC
:103E000044493846FDF718F8434907463046FDF760
:103E100013F801463846FCF707FF06462968266175
:103E20003046FDF7BDF8FDF7F3F9E0832668D5F8D5
:103E300010B07069D6F800904FF000084146FDF7C9
:103E400099F9D9F800A0A76800282ED0594648460D
:103E50000BF0E3FF5146FDF7ABF930B12F4AC6F83E
:103E60001480536B43F001035363E96E3846FDF74A
:103E70009FF968B1294AC6F81480536B43F02003B8
:103E80005363BDE8F88F002BD0D180F84530CDE7E3
:103E9000296F3846FDF76EF90028F2D01F4AC6F8A0
:103EA0001480536B43F01003EAE71D491B4C58463E
:103EB000FCF7BAFE014648460BF0AFFF5146FDF74E
:103EC00063F918B1636B23F0010363634FF07E5114
:103ED000E86EFCF7A7FE01463846FDF74BF968B1DE
:103EE0004FF07E51286FFCF79FFE01463846FDF7E4
:103EF0005FF918B1636B23F030036363636B13F0F6
:103F0000310F02BFAB6903F100437361B9E700BF32
:103F1000A8100020CDCC4C3FCDCC4C3E801D0020C5
:103F2000CDCCCC3D2DE9F843D0F80880994E04461D
:103F30000D464046496E776BFDF73AF9002831D0BF
:103F4000236800221A6147F080070021204677632A
:103F50000BF0DAFF776BBB0719D52368E868D3F855
:103F600000904FF07C51FCF75DFE8046B9F90800E7
:103F7000FCF70EFF01464046FCF75EFF0146D9F80C
:103F80000000FDF7F7F810B127F0020777636368C8
:103F9000042B00F26D81DFE813F011006E008E003B
:103FA00005013401A96E4046FDF7E4F80028D1D0A0
:103FB000236800221A6147F04007C6E72368696852
:103FC0001F6838460BF048FFD7F80080014640468E
:103FD000FDF7D0F8002800F04B81296938460BF036
:103FE0003BFF01464046FDF7E3F8002800F0408122
:103FF0000BF006FFD4E90823801AAA6863EB430399
:10400000D117824271EB030380F232814FF07E516F
:10401000686EA768FCF706FE01463846FDF7AAF869
:10402000002800F025814FF07E51A86EFCF7FCFDC2
:1040300001463846FDF7BCF8002800F019815649C2
:10404000D4F800803846FCF7EDFD696FD8F8009091
:10405000FCF7F2FEE969FCF7E7FD6B69C9F80C00B3
:10406000C8F81030002384F84430736B23F0C20387
:10407000736301211AE023684749A0681E68FCF7B2
:10408000D1FD696FFCF7D8FEE969FCF7CDFD002191
:10409000F06030460BF0E0FE01463068FDF788F82E
:1040A000002800F0E5800023236302212046BDE8BC
:1040B000F8430BF029BF3849A0682768FCF7B2FD28
:1040C000696F3E68FCF7B8FEE969FCF7ADFD0021B9
:1040D000F06030460BF0C0FE3049FCF7A3FD01460E
:1040E0007068FDF75BF810B3296AB868266BFDF7B6
:1040F00041F810B96B6AB34202DA012384F8443004
:104100000136266394F84430002B00F0B180238BF5
:104110000133238395F8343000266661CBB995F8D6
:1041200028102368002940F093801E61BEE70BF041
:1041300067FED4E90823801A47F2810263EB430348
:10414000904273F10003DDDB012120460BF0DCFE21
:10415000D8E70BF055FED4E90E31C01A104A4FF0E3
:10416000000361EB4101FDF773F86B6CDA179842BD
:1041700071EB020305DA226C638B9B1AAA6C9342E3
:10418000CDDB2368A96B1A68D1602A6C1A610421FF
:104190008CE700BF801D00200000C841CDCC4C3D05
:1041A0008051010023683349A0681E68FCF73AFD7E
:1041B000696FFCF741FEE96AFCF736FD0021F0600B
:1041C00030460BF049FE01463068FCF7E7FF20B1AE
:1041D0000BF016FE0023A062E3620BF011FED4E99F
:1041E0000A23801A2A6B63EB4303D117824271EBD7
:1041F00003033DDA23686A691A61002384F84430B6
:1042000037E72368A0681B491E68FCF70BFD696F40
:10421000FCF712FEA96BFCF707FDF0600BF0F0FD58
:10422000D4E90823801AEA6B63EB4303D117824277
:1042300071EB03031CDA0BF0E3FD002395F8281063
:10424000E3630022638B2364A0632368626169B126
:104250000849A0681E68FCF7E5FC696FFCF7ECFDF7
:10426000E96AFCF7E1FC0321F0601FE71A611DE732
:10427000BDE8F8830000C84110B50F48FDF774FA97
:10428000044678B10D4C0E4A0B4821460BF003FE54
:10429000E368226DE16C0B480BF029FFBDE810408C
:1042A00000F07CBA084845210DF045FA0249034860
:1042B00022460BF0F0FDF1E7C81C0020501C002046
:1042C00060100020A81000200A4D010838B51848D9
:1042D000FDF740FA04461748FDF73CFA8442164CB5
:1042E0000DD11348FDF736FA1149024611480FF077
:1042F000BEF920B940F20333A4F8B03138BD0F48FD
:10430000FDF728FA05460B48FDF724FA854202D04E
:1043100040F20113F0E70948FDF71CFA074902468D
:1043200004480FF0A4F90028F2D140F20553E3E766
:104330000E5201085C220020A41700201852010828
:104340007FB50C210DEB010004F0AEFD0C210DEB4F
:1043500001000CF0EEFE0C4B0C4A009308210923DF
:104360000BF0FBFD00F0E6F90948FDF7FDF9024608
:1043700038B1084A084906480BF08DFD07B05DF8D2
:1043800004FB03490448F7E7ED51010867220020C8
:10439000C81C002060100020501C0020B349B44B02
:1043A000B448F0B4CB61B44B0B63B44B4B64B44B27
:1043B0008B65B44BCB66B44BC1F88030B34BC1F8BE
:1043C00094301A1DC1F8A82003F11002C1F8BC20D6
:1043D00003F11402C1F8D02003F11C02C1F8E4205B
:1043E00003F12002C1F8F82003F12402C1F80C21E6
:1043F00003F12802C1F8202103F12C02C1F8342175
:1044000003F13002C1F8482103F13402C1F85C2104
:1044100003F13802C1F8702103F14002C1F8842190
:1044200003F13C02C1F8982103F14402C1F8AC2128
:1044300003F14802C1F8C02103F17402C1F8D4218C
:1044400003F15402C1F8E82103F15802C1F8FC213C
:1044500003F16402C1F8102203F16802C1F82422BA
:1044600003F16C02C1F8382203F170020024C1F894
:104470004C2203F14C0250338C60C1F86002C1F849
:104480007422C1F8883200F10C03C1F89C3200F1AB
:104490002403C1F8B0327E4BC1F8C4327D4BC1F861
:1044A00028337D4B7D4A1E687D4FC1F83C73331D18
:1044B000C1F8503306F10C03C1F86433131DC1F881
:1044C0008C3302F11403C1F8A03307F108030C3751
:1044D000744DC1F8F07306F11007C1F80474171F8A
:1044E000C1F818746F1CC1F82C746F4FC1F8407478
:1044F0006E4FC1F8B4333F686D4BC1F8D84205F137
:10450000130CC1F8DCC307F1040CC1F854C407F163
:104510000C0CC1F868C4A0F1280CC1F87CC4A0F14F
:10452000200CC1F890C4A0F1040CC1F8A4C4A3F1FC
:10453000040CC1F8B8C4A3F1300CC1F8EC02C1F806
:104540000053C1F81443C1F87823C1F8C833C1F847
:10455000CC44C1F8E0C4A3F12C0CC1F8F4C4A3F11D
:10456000380CC1F808C5A3F1340CC1F81CC51438C7
:1045700002F1100CC1F830C5C1F8A80502F1120C07
:1045800006F11800C1F844C5C1F8BC0502F1080CD9
:1045900002F10C001632C1F8F825A3F10802C1F8A7
:1045A0000C26A3F12402C1F82026A3F12202C1F8AF
:1045B0003426A3F12002C1F84826A3F11C02C1F859
:1045C0005C26A3F11802C1F87026A3F11402C1F809
:1045D00058C5C1F88426A3F1280CA3F11002C1F834
:1045E0006CC5C1F89826A3F1260CA3F10E020C3B72
:1045F000C1F8C03605F13703C1F8E83605F12B03E1
:10460000C1F8FC362B4BC1F838372B4BC1F84C376F
:104610002A4BC1F860371C37294BC1F894751C36FA
:104620003B35C1F8D065C1F8E405C1F8AC26C1F846
:10463000D446C1F81057C1F82447C1F880C5C1F865
:104640007437204BC1F888371F4BC1F8C4371F4B54
:10465000C1F89C47C1F8B047C1F8EC471C48C1F805
:104660000038F0BC682201F091BD00BF00000020BE
:1046700067220020D4100020C0510108B351010866
:10468000E8510108CC51010879420008C81C0020FB
:10469000440B00204C1E0020E44701086810002055
:1046A000041E0020411D0020BC1D0020E847010819
:1046B000B81D00204B000108490001089D47000873
:1046C000CD4200085C220020470B0020460B002052
:1046D000A41700201FB5114C4FF440312160104841
:1046E00001AA0EF048F918B10E4845210DF023F843
:1046F000029A0D490948A2814FF45023B3FBF2F30B
:10470000E38103F02FF918B1084845210DF013F8A3
:10471000074B01221A7004B010BD00BF58190020C9
:10472000000D002021520108445201084D52010899
:1047300070220020144B1B7873B50BB9FFF7CAFF2A
:10474000124D13484FF400732A4601210DF077FAF9
:10475000041E17DB2E88042E14D14FF0FF324FF0C9
:10476000FF330C4808F0F0F800964FF47F43A21E88
:10477000A91C09480BF051FF064802B0BDE8704083
:1047800008F05AB902B070BD7022002088190020CC
:1047900058190020400E0020A417002038B5174BF0
:1047A0001B780BB9FFF796FF154D16484FF0FF32F7
:1047B0004FF0FF3308F0C8F8294604234FF4FF7286
:1047C00021F8023B10480BF0A2FF024640B90F4807
:1047D00045210CF0B0FF0B48BDE8384008F02CB97B
:1047E000841C2A460A482346012103F035FA8442F4
:1047F0000246F0D007484521EBE700BF70220020B9
:1048000088190020400E0020A417002062520108E1
:10481000581900209F52010810B50B480BF00AFCF4
:104820000A4B0B4800225A600A4A536B43F00203BA
:104830005363094B1A88094B9B88BDE810409BB213
:1048400092B245210CF077BF401D0020601000207F
:10485000B7520108801D002048220020C01B002004
:1048600010B50B480BF0E6FB0A4B0B4800225A60D0
:104870000A4A536B43F400435363094B5A88094B6C
:104880009B89BDE810409BB292B245210CF053BF0A
:10489000401D002060100020F3520108801D002000
:1048A00048220020C01B002010B5084810210BF042
:1048B00006FC074B07481A88074B9B88BDE8104049
:1048C0009BB292B245210CF036BF00BFA810002069
:1048D0004822002030530108881B0020044A054963
:1048E00053695B090B809369034A5B091380704726
:1048F000F81B0020442200204622002070B52A4ADE
:104900002A4D044635F8103052F8200052F8241091
:1049100010FA83F32648005DC1405B1A42F8243048
:10492000244A02EBC403E600D988013109B2D980D8
:1049300052F8341001B335F81400998880B289B266
:10494000884219D3DB881BB2012B1DDC1A4B991945
:10495000CA88013212B2CA8053F8342032B135F815
:1049600014008A8880B292B2904211D93344DA8816
:1049700012B2002A15DC70BD3244D3881BB2002B62
:10498000E4DD0023D380E1E752F834309847DDE7D7
:10499000CA8812B2012AEEDD53F83430BDE8704007
:1049A00018470022DA80E6E7F81B002048220020A2
:1049B00071530108C01B0020881B002038B50C462D
:1049C0001349FCF739FA13490546FCF7F1FBC8B95E
:1049D0002846FCF71DFC83B20F4A0D4993800F4B0C
:1049E00013602046FCF728FA0A490446FCF7E0FB6E
:1049F00058B92046FCF70CFC80B2094B094A988054
:104A00001A6038BD4FF6FF73E6E74FF6FF70F4E724
:104A1000071FD44400FF7F47C01B0020194800082F
:104A2000881B0020A948000810B50A49FCF704FAC1
:104A300009490446FCF7BCFB40B92046FCF7E8FBFB
:104A400080B2064B064A98819A6010BD4FF6FF70FF
:104A5000F7E700BF1B362C4400FF7F47C01B002038
:104A600061480008054B9A6C02439A649B6C82B0C3
:104A700018400190019B02B0704700BF0010024037
:104A800070B50A4D2B689B070CD46B6863F07043BC
:104A90006B6070BD2046FFF731FF01343368A342DD
:104AA000F8D8F2E7024E0024F8E700BF0000024009
:104AB000141C0020F8B50B4D2B689B0704D46B68C1
:104AC00063F070436B60F8BD074E084F346833687D
:104AD0003A681344A342F2D92046FFF70FFF01348E
:104AE000F5E700BF00040240141C0020181C002041
:104AF000014608B50420FFF7B5FF364A914242D17E
:104B0000D1F8003823F0FF0343F00503C1F8003863
:104B10000120FFF7A7FF304B0B61304B4B61CB6897
:104B20002F4A1B0C1B0412681343CB608B6843F0A5
:104B300080038B608B6823F4406343F480638B6055
:104B40008B6823F4407343F480738B608B6843F06D
:104B500008038B608B6843F002038B608B6843F023
:104B600020038B608B6843F001038B60194B9942E3
:104B700024D10B200022022104F000FD0B20BDE80F
:104B8000084004F0EBBC174B9942CFD1D2F8203843
:104B900023F0FF0343F02403C2F820380220FFF77C
:104BA00061FF0F4B1A680D4B03EB42030E4A0A617B
:104BB0004B61CB680D4A1B0C1B04B4E7094B9942AF
:104BC00006D138200022022104F0D8FC3820D6E794
:104BD00008BD00BF000002404000005048220020F5
:104BE000141C00200004024040010050181C00204A
:104BF000836823F0004323F03F0343F002032DE9D1
:104C0000F74F8360564BDA6C42F40052DA64DB6C87
:104C1000544A03F400530193019B936823F47C13DB
:104C200043F480339360836823F0204323F03F03F1
:104C30008360836823F0104323F03F0343F08053E5
:104C400004468360642008F093FDA36823F040438A
:104C500023F03F0343F00043A360A368002BFCDB79
:104C60002368404A404DDB0744BF0123236093681B
:104C700023F0E07343F4400393603C4A3C4B002034
:104C8000B4F1A04F18BF1A4604F130064FF01F0CC4
:104C900004F114074FF0070E4FF0060855F8043BD7
:104CA0009C4234D1334B53F820304B2B2FD8116812
:104CB000DFF8C49059F82110DFF8C0904FEA911A3C
:104CC0000AF00C0A59F823305AF806B001F01F090F
:104CD0000CFA09F12BEA0101C3F3846B0BFA09F911
:104CE00041EA09014AF80610D90D01F00401C3F3A5
:104CF000045351F807900EFA03FA29EA0A0908FA50
:104D000003F349EA0303CB51136801331360013005
:104D10000728C3D112681A49236B013A23F00F0305
:104D200051F8222013432363E36843F40043E36014
:104D3000E36823F01803E360E36843F48053E3601F
:104D4000E36843F00303E360A36823F0004323F028
:104D50003F0343F00103A36003B0BDE8F08F00BF41
:104D60000010024000030050AC460108141C002053
:104D7000181C00209046010814470108C846010885
:104D8000544701084FF0A04306499A680A4042F090
:104D900004029A60044A93680B4043F00403936052
:104DA000704700BFC0FFFF7F000100507FB53C4A45
:104DB000136E43F001031366136E03F001030293B5
:104DC000029B384B196B21F030011963196B21F0EC
:104DD00002011963196B41F001011963196B09078D
:104DE000FCD5D36C3049314D314E43F48033D3641C
:104DF000D36C03F480330393039B2E4BDA6B22F0C6
:104E00000202DA631A684FF0A04442F001021A600D
:104E1000D4F808280A4042F40062C4F80828DA6B83
:104E200022F40032DA631A6842F480321A60224AAD
:104E3000D3680B4043F4CC7343F00103D3602046A6
:104E4000FFF7D6FE2846FFF7D3FE1C48FFF750FEBB
:104E5000A2681B48324042F00402A260FFF748FEFD
:104E6000AB6818491848334043F00403AB60002294
:104E70000EF008FA0A2200231348CDE9002308F0B7
:104E8000B9FC002141F2883008F08CFAFCF79CFD57
:104E9000FFF724FD04B0BDE87040FCF795BD00BFEE
:104EA000001002400000014000F0FFFF0001005030
:104EB000C0FFFF7F000800500808005000000240BB
:104EC00000040240854D0008B00E00202DE9F74F88
:104ED0004B4ADFF8309111784B4F4C4BDFF830A143
:104EE000044659B18168C9F80010C1683960016889
:104EF00019604168CAF8001000211170454ADFF8B6
:104F000018B1D2F80080454AD8F800001568444A24
:104F10002968006809681668FCF72CF9404A3B4B81
:104F20000021002852D0013616601868FBF72CFFCC
:104F3000AB690193064600211846FCF739F9019B3D
:104F400000B9002319463046FBF76EFEFCF760F906
:104F50002060DAF80000FBF717FFED690646002134
:104F60002846FCF725F900B9002529463046FBF70D
:104F70005BFEFCF74DF96060D9F80000FBF704FF19
:104F8000D8F81C60054600213046FCF711F900B93D
:104F9000002631462846FBF747FEFCF739F9A060AA
:104FA0003868FBF7F1FEDBF8186005460021304653
:104FB000FCF7FEF800B9002631462846FBF734FE20
:104FC000FCF726F9E06003B0BDE8F08F44F25060D2
:104FD000864212DD206B01302063A068C9F8000012
:104FE000E0683860206818606068CAF80000C8F897
:104FF0001C10CBF81810E961A9610021116094E739
:10500000480B00202C1C0020281C0020201C002005
:10501000241C0020E8470108A8100020E4470108EC
:105020001C1C0020F8B53B4B81691B681B681D6880
:1050300004462846FCF7BCF800B1A561364BE1698F
:105040001D682B681E683046FCF7B2F800B1E661B7
:10505000324E216AF7683846FCF7AAF800B1276299
:10506000B4F92C007669FBF793FE01463046FCF755
:105070009FF818B13046FCF7A5F8A085284E616A64
:1050800077683846FCF794F800B16762208AED68CB
:10509000FBF77EFE05F1004501462846FCF788F83F
:1050A00040B12846FCF7B4F8A38A80B2834220823C
:1050B00038BFA082608AF568FBF76AFE0146284681
:1050C000FCF776F840B12846FCF7A2F8E38A80B2F4
:1050D0008342608238BFE082124BB4F928009D6899
:1050E000FBF756FE01462846FCF762F818B1284641
:1050F000FCF768F82085B4F92A00A56BFBF748FE99
:1051000001462846FCF754F818B12846FCF75AF82F
:105110006085F8BDE4470108E8470108401D00200C
:10512000A81000206010002010B5C0E90112002274
:1051300042800F4A82620F4AC2624FF08442026389
:105140000D4A42634FF07E5282633C22C2630B4A97
:1051500003700123C0E9073204464370084A094B33
:105160004FF49671462000F047F9204610BD00BF6D
:105170000000A0410000B44200001041F0D8FFFF41
:105180008988083EEC51783F10B5C0680D4C4FF04F
:105190007C51FCF70DF840B100F008F928B90AF08D
:1051A0003CFF094A136823B91060606BC0F380307C
:1051B00010BDC01A022882BF636B43F4804363634F
:1051C000F3E700BF801D0020381C0020054B39B9D3
:1051D0001868013000281860CCBF002001207047FB
:1051E0000020F7E7301C00202DE9FF41044600F0C5
:1051F000DDF8002856D12046FFF7C6FF05460028F7
:105200003FD12046FCF7F8FD0246002847D029464A
:105210002046FFF7DBFF002833D1A3681D686368D1
:10522000012A18684FF07E512ED1FBF7FBFC014696
:105230002846FBF7B5FE00F0C1F8DFF8AC8000F0BF
:1052400087F80AF0EAFE636860621868FBF77CF989
:10525000A368064618680F46FBF776F90D46044624
:1052600000F04CF92149FBF7E7FDFBF76DF9CDE9BB
:105270000045CDE9020132461D483B46414608F053
:10528000D1FF04B0BDE8F081FBF7CEFC0146284613
:10529000FBF786FE00F092F8DFF85880CFE7164B58
:1052A0001860EEE7A368216B1868FBF781FFB8B9B7
:1052B0006368E16A1868FBF77BFF88B963788BB194
:1052C0002046FCF7DDFC0028DBD00C4D20460AF020
:1052D000B1FE0B48294604B0BDE8F04108F0A2BF7A
:1052E000084DF3E7084DF1E7785301080000C84284
:1052F000BA5301087D530108301C0020B053010847
:10530000F253010883530108A753010810B50D4C4F
:105310002368142B12DD0C4845210CF00CFAFFF722
:105320003DFA00F01FF8094B00220021322000F066
:1053300063F8002000F042F800F00AF82368013317
:10534000236010BD341C00200354010848E17A3F5B
:10535000034B5A6B1AB15A6C42F400425A647047BC
:10536000002C0140024A536C23F4004353647047FD
:10537000002C0140014B586B80B27047002C01405B
:10538000074B1B88984204D9064B1B88834228BFD1
:105390000346054A5363536B5B08D364704700BFF1
:1053A0005822002056220020002C0140024B586C4D
:1053B000C0F3C030704700BF002C014010B5002181
:1053C0000446FBF7EBFEA0B14FF07E512046FBF701
:1053D000DBFE70B1074BD86A80B2FBF7D9FC2146DF
:1053E000FBF72AFDFBF714FFBDE8104080B2FFF782
:1053F000C7BF10BD002C01402DE9F347DFF8DC806A
:10540000DFF8DC901E46D9F80040364BB4FBF3F4CD
:105410004FF47A7A4C43B4FBFAF4A8F80040324CCB
:105420001746022122460546304802F0C1FF304BA4
:105430001A6E42F400621A661B6E03F40063019355
:10544000019B0023A362A36943F06803A361236A5D
:1054500043F005032362236843F001032360236DB7
:1054600043F4D0432365236A43F4801323626368C3
:1054700043F450036360636943F001036361D9F847
:1054800000300AFB05F5B3FBF5F5B8F80030E5622E
:10549000626C03F07F0313436364636C43F44073F3
:1054A0006364E06A80B2FBF773FC3946FBF7C4FC27
:1054B000FBF7AEFE0F4B1880E06A80B2FBF768FC8A
:1054C0003146FBF7B9FCFBF7A3FE0B4B18803046C7
:1054D00002B0BDE8F047FFF771BF00BF5A220020BD
:1054E0006809002040420F00002C01409447010849
:1054F00000100240582200205622002038B5074BE9
:10550000586BDD6A80B2FBF73FFC0446A8B2FBF79C
:105510003FFC01462046FBF743FD38BD002C01400F
:1055200010B5044608460DF006FC21460246054823
:105530000BF019FE04480BF016FEBDE810400120E8
:1055400002F078B9395401086B540108064A074B38
:1055500030B910604FF0FF311960506059607047EA
:10556000012010600021F7E73C1C0020441C0020B3
:105570002DE9F04F89B007F02DFF3F493F4E02461D
:105580004FF47A7002F02AFD04AD0090002456F822
:10559000040B06F09FFF0134042C45F8040BF6D1F0
:1055A0000120FFF7D3FF00264FF001093446009891
:1055B00002F0BEFC022C28BF00241E2E02DD89F062
:1055C000010900262E4B53F82430012B1AD0032B4F
:1055D00012D1B9F1000F15D1DFF8A88004AF002572
:1055E00018F8011B57F8040B4FF4807201350AF0CC
:1055F0003FFD042DF4D130E0022BEDD1224B1B787E
:10560000002BE9D0214B1F4FDFF884B003EB041AC5
:1056100008AB019304AD5AF8048BB8F1010F05D023
:10562000B8F1020F20D0B8F1000F0ED1DBF8002046
:105630002868397842F40072CDE902010AF018FDB9
:10564000DDE9020142460AF003FD019B04359D425B
:1056500007F101070BF1040BDDD101340136002104
:10566000502007F09FFEA2E7397828684FF4807237
:105670000AF0FEFCE9E700BF21550008D447010805
:105680003C1C0020A7540108490B0020A447010836
:10569000C4470108014B1870704700BF71220020F9
:1056A00001289FBF034B43F82010034B43F82020F1
:1056B000704700BF3C1C0020441C0020012806D875
:1056C000034B032243F82020024B43F8201070477D
:1056D0003C1C0020441C00200B4A137883F001037B
:1056E00013700A4A1368002B09DC01D108490B60CA
:1056F0005368002B06DC01D1054A53607047013B1B
:105700001360F5E7013BF8E7490B0020441C00203B
:105710003C1C0020064B1B78002B064B14BF0222BA
:1057200001221A60044B4FF0FF321A60704700BF2D
:10573000712200203C1C0020441C002038B5026669
:10574000049A0160044600210025C0E91925416042
:105750008160C160016141618161C161C1630164B6
:105760008165456280F82C50C56605629847236EB6
:1057700028469847064B63654FF49673A3632365E9
:10578000044BE365012384F82C30204638BD00BF6C
:105790000000C8419A99993EF8B5036A012B044666
:1057A00040F08B804568476D29462846FBF744FB4F
:1057B0008249FBF7F5FB8249FBF73EFB814B06462E
:1057C0003946986BFBF72EFA01463046FBF72CFA68
:1057D0007D49FBF7E5FB3946FBF726FA7B49606517
:1057E000FBF7E6FC20B97A492846FBF7E1FC40B11B
:1057F000636A43F0040363620AF054FC00232063ED
:105800006363636E53B19847054638B9636A43F0E2
:10581000040363620AF046FCC4E90C0525686D497F
:10582000686AFBF7C5FC18B1636A43F02003636242
:10583000E16B28460AF0F1FA01462868FBF79AFC6A
:1058400040B1636A43F0010363620AF02BFC00235A
:10585000A064E3642368B3F908001D68FBF798FAB5
:10586000A16DFBF7E9FA01462846FBF7A1FCD0B988
:105870004FF084412846FBF79BFCA0B9E066636AC1
:105880001BB1002120460AF01AFC94F82C501DB9D7
:10589000236E284698472562636A002B00F08C80AF
:1058A0005B42A362F8BDE36E01330A2BE366C2BF1D
:1058B000636A43F002036362E1E7436ADF071AD5D4
:1058C0000568016C28460AF0A8FA01462868FBF72B
:1058D0006FFC80B10AF0E6FBD4E91223801A226D36
:1058E00063EB4303D117824271EB0303BEBF636ACC
:1058F00023F001036362636A13F0140F10D00AF0FF
:10590000D1FBD4E90C23801AA26B63EB4303D117BC
:10591000824271EB0303BEBF636A23F01403636228
:10592000656AAE071ED52368E76DB3F908001E68E7
:10593000FBF72EFAA16DFBF77FFA3946FBF772F9F8
:1059400001463046FBF716FC60B139464FF0844003
:10595000FBF768F901463046FBF70CFC10B125F067
:1059600002056562656AA80608D523680021586AA1
:10597000FBF700FC10B125F020056562636A94F81E
:105980002C20190705D5002A86D123F0080363626D
:1059900082E7002A80D0002B7FF47EAF23680E4977
:1059A000586AFBF7E7FB00283FF476AF236E01202F
:1059B0009847012323626FE7236A72E70000C84318
:1059C00000008C42801D0020000048420000F04290
:1059D00000002042CDCCCCBD000080BF38B50E4DBC
:1059E000014604464FF0FF320120FFF759FE2868B8
:1059F00002698168136843F0040313600B6840F682
:105A00000122022198472CB101212868BDE83840C5
:105A10000AF071BB2146F8E74C1C002008B5044889
:105A200006F058FD034B1860BDE80840FCF76CBA5F
:105A3000A15401084C1C00202DE9F84307F0CAFCD2
:105A40001A49DFF86C90DFF86C801B4F0246C820C3
:105A500002F0C4FA0546284602F06AFAFBF7B4FFE2
:105A6000D9F800301E6841463046FBF7E5F9394663
:105A700004463046FBF7E0F92146FEF79FFF0C484D
:105A80000AF047FB0D480AF044FB0D48FFF7ACFB5A
:105A9000FFF78CFCFFF7FEFD0A48FFF77DFE0021B3
:105AA0004FF47A7007F07EFCD5E700BF215500085F
:105AB0002C1E0020CDCC4C3F9A99993FE41D00202C
:105AC000401D0020A81000202DE9F047474A484912
